:020000040800F2
:10000000181D0020215400080B720008E55200085A
:10001000E5520008E5520008E5520008E5520008E4
:10002000E5520008E5520008E5520008A551000815
:10003000E5520008E5520008455100085D4F0008F0
:10004000F9530008F9530008F9530008F953000860
:10005000F9530008F9530008F9530008F953000850
:10006000F9530008F9530008F9530008F953000840
:10007000F9530008F9530008F9530008F953000830
:10008000F9530008F9530008F9530008F953000820
:10009000F9530008F9530008F9530008F953000810
:1000A000F9530008F9530008F9530008F953000800
:0C00B000F9530008F9530008F953000848
:1000BC0002B4714649084900095C49008E4402BCEF
:1000CC007047C046002934D00123002210B4884266
:1000DC002CD301242407A14204D2814202D209016B
:1000EC001B01F8E7E400A14204D2814202D249008C
:1000FC005B00F8E7884201D3401A1A434C08A0422F
:10010C0002D3001B5C0822438C08A04202D3001BC4
:10011C009C082243CC08A04202D3001BDC082243DB
:10012C00002803D01B0901D00909E3E7101C10BCFF
:10013C00704701B5002000F05FF802BD0029F8D02F
:10014C0003B5FFF7C1FF0EBC4243891A1847C046DE
:10015C00002941D010B4041C4C40A44601230022B9
:10016C00002900D54942002800D5404288422CD3B2
:10017C0001242407A14204D2814202D209011B01AD
:10018C00F8E7E400A14204D2814202D249005B00AC
:10019C00F8E7884201D3401A1A434C08A04202D314
:1001AC00001B5C0822438C08A04202D3001B9C0855
:1001BC002243CC08A04202D3001BDC0822430028B7
:1001CC0003D01B0901D00909E3E7101C6446002C7D
:1001DC0000D5404210BC704701B5002000F00CF86F
:1001EC0002BDC0460029F7D003B5FFF7B3FF0EBC24
:1001FC004243891A1847C0467047C046D0400B1C72
:10020C00D1409C46203AD340184352426346934017
:10021C0018437047002B15D1002A13D1002906DB97
:10022C0001DC002806D00020C043410802E08021F8
:10023C000906002007B4024801A14018029003BD32
:10024C00B9FFFFFF03B4684601B5029802F06BFBDF
:10025C00019B9E4602B00CBC7047C046002B11D1CE
:10026C00002A0FD1002900D1002802D00021C94357
:10027C00081C07B4024802A14018029003BDC046F6
:10028C0079FFFFFF03B4684601B5029802F0DAFA71
:10029C00019B9E4602B00CBC7047C0469140031CAB
:1002AC0090409C46203A9340194352426346D340B7
:1002BC001943704710B5002903D100F007F820301E
:1002CC0002E0081C00F002F810BDC0461C210123FE
:1002DC001B04984201D3000C10391B0A984201D31D
:1002EC00000A08391B09984201D30009043902A2FB
:1002FC00105C40187047C046040302020101010162
:10030C000000000000000000F0B50668476885B0EA
:10031C00574A002330000C003900FFF77BFF544A8A
:10032C000500002330003900FFF774FF161E00DAB9
:10033C0086E0504BE12130000901ED18FFF708FF72
:10034C00E121A06009013000FFF74CFF0E003C21B9
:10035C003000FFF7FDFE3C2160603000FFF742FFEC
:10036C00E81C21600721FFF73DFF002900DA073167
:10037C00A161281E404901DA404BE818FFF7E8FE5E
:10038C003F4E40494643761907003000FFF79AFE6E
:10039C003D4985193000FFF795FE3C492D1A300078
:1003AC00FFF790FE6E212D1AFF312800FFF78AFE11
:1003BC00374900902800FFF785FE3349861928003D
:1003CC00FFF780FE6E210525009BFF3159432B0062
:1003DC00361A761A73430233992118000193FFF7EA
:1003EC0071FE02909920029B290058430230FFF7BE
:1003FC0069FE731C1B1A0393019A264B033D9A4208
:10040C0000D90C3D029B0122ED18C8235B005F4311
:10041C00009BFF180023AA425B41FF183223FF33D5
:10042C009E4211D9333EFF3E1B4B2000FF18039B0D
:10043C00E661E360002367612561236205B0F0BDCE
:10044C000B4BF618154B75E7009B9B0706D16421E7
:10045C000098FFF773FE0120002906D1C8210098EF
:10046C004900FFF76BFE484248413B363618DBE744
:10047C00805101006CFA0A00B13A020050C5FDFF30
:10048C004FC5FDFFAC8E0000B4050000B03A020071
:10049C00948E0000F905000094F8FFFF6BFA0A0037
:1004AC00F7B5016804003B290BD93C22684602F0E1
:1004BC0042FB63680099019A5B186360002A51DB68
:1004CC00226061683B290BD93C22684602F033FB61
:1004DC00A3680099019A5B18A360002A47DB62604D
:1004EC00A16817290BD91822684602F024FBE3688F
:1004FC000099019A5B18E360002A3DDBA260216938
:10050C000B290BD90C22684602F015FB6369009984
:10051C00019A5B186361002A33DB226165691C2335
:10052C00AA070FD164212800FFF75CFE1D230029C8
:10053C0008D13C4B9131E818FF31FFF753FE4B4289
:10054C004B411C33E2681D27002A45DD03261C277E
:10055C002269E168012A43D0334D90004059814211
:10056C0041DC3CE03C32013B22606360A9E73C3259
:10057C00013B6260A360B3E71832013BA260E36009
:10058C00BDE70C32013B22616361C7E72269013A86
:10059C002261013217D10B23032265692361681E86
:1005AC006061113310420ED16421FFF71BFE3B003A
:1005BC00002908D11D4B9131E818FF31FFF712FECD
:1005CC004B424B411C3321691A00012902D0164AB7
:1005DC0089008A58B618E660E668002ED6DDF7BDAD
:1005EC008B42FCDA1800091A0132E16022610C2AF4
:1005FC00AED1002365692361681C60613B00304209
:10060C00A6D16421FFF7EEFD1D230029A0D1084BD4
:10061C009131E818FF31FFF7E5FD4B424B411C339C
:10062C0096E7C0466C070000447C00086B0700008E
:10063C006D070000F0B58BB0040000F0E7FD0590ED
:10064C002000FFF72DFF3C236268A168534322680A
:10065C009B18E12212014A439B180093DB1701936C
:10066C00E3682269581EB64B91005B181B6BC318CC
:10067C00049363690393012A13DD9B0711D1642151
:10068C000398FFF7AFFD002908D1039BAD4A9131C8
:10069C00FF319818FFF7A6FD002902D1049B013306
:1006AC000493049BA849E361039BA84A5B189342FB
:1006BC0000D976E1039B462B00DC8CE0B72746255E
:1006CC007F0003231D4200D083E064212800FFF744
:1006DC0089FD3B00002909D19A4B9131E818FF3173
:1006EC00FFF780FD4B424B416E33FF33049A0135CB
:1006FC00D3180493039BAB42E3D1049B944AD917C0
:10070C000498002302F07CF8009A019B12184B41CC
:10071C000092019300F098FB8E4B1D68002D4FD07A
:10072C006369884A9818236A06931F1E00DD012707
:10073C00059B5B68834200D08EE0059B1B6D079385
:10074C00079B0893DB170993059B986CD96C9B6AE4
:10075C0005001A000E009C46DB17AD1A9E412A00BC
:10076C00019D3300AE420EDC02D1009DAA420AD894
:10077C00089D099E401BB141019DA94271DC02D12B
:10078C00009DA8426DD8089D099E0599086A496A82
:10079C00401BB141059D2D68002D64D0019DA942DF
:1007AC000ADC02D1009DA84206D801998B4261DC7B
:1007BC0002D100998A425DD80025069BAB425DDAD6
:1007CC00059B9B6A1E00DF17009A019BB6185F41C0
:1007DC00A7E06E2389E7039B462B8ED0B7274525D0
:1007EC007F0016E0002B30D164212800FFF7FAFCC3
:1007FC003B00002909D1534B9131E818FF31FFF729
:10080C00F1FC4B424B416E33FF33049A013DD31A3A
:10081C0004930323039A2B40AA42E3DB002B16D14B
:10082C0064211000FFF7DEFC002912D1039B454A1E
:10083C0091319818FF31FFF7D5FC4B4259416E317D
:10084C00FF31049B5B1A049357E76E23DCE76E21A0
:10085C00F6E7B7214900F4E700F042FA002800D08F
:10086C006BE73D0051E0019DA9429EDC02D1009D49
:10087C00A8429AD8069B0125002B49DB6F403E000D
:10088C00012F42D16246079B9B1A002D02D0634672
:10089C00079A9B1A18002268D917D2182260009A5E
:1008AC00019B12184B41200000920193E768FFF75F
:1008BC00F7FDE368DF1B28D0012F20DC7B1C00DA5E
:1008CC003700049BE269DB1904930323BF1845D559
:1008DC00039A501E184215D16421FFF783FC00299E
:1008EC002CD11D4A039B9446913163441800FF316F
:1008FC00FFF778FC4B4259416D31FF3104E0012781
:10090C007F42DEE7B6214900E161012D00D057E7B7
:10091C00059B01251B6D1E00DF17009A019BB61865
:10092C005F410498256204300721FFF75BFC002926
:10093C0035DBA161300039000BB0F0BD6E21DCE776
:10094C00447C00086C07000010270000204E0000BB
:10095C0080510100E00000206B070000039A1A424E
:10096C0016D164211000FFF73DFC002912D10F4A6B
:10097C00039B9446913163441800FF31FFF732FC1E
:10098C004B4259416E31FF318F4206DAE761BCE7C9
:10099C006E21F8E7B7214900F6E77F1AF6E7073131
:1009AC00C7E701267642F717C4E7C0466C0700007C
:1009BC0008B430B505009AB0141E08DA8B23036016
:1009CC00012040421AB030BC08BC01B01847822349
:1009DC0001A89B0083810023019101619A4200D000
:1009EC00531E8360436101235B42C38101001EAB34
:1009FC001D9A2800009300F0A5FD431C01DA8B23FF
:100A0C002B60002CDED00023019A1370DAE70CB4B3
:100A1C0030B5164B9BB00C1E1D6808DA8B230120D9
:100A2C002B6040421BB030BC08BC02B0184782237C
:100A3C0001A99B008B810023019008619C4200D08E
:100A4C00631E8B604B6101235B42CB811E9A1FABF3
:100A5C002800009300F076FD431C01DA8B232B60F9
:100A6C00002CDFD00023019A1370DBE7883F0020B5
:100A7C00F0B587B0019102921F000A000821059081
:100A8C00384813001C78551C065D2A000E40F8D11E
:100A9C002D2C34D12C7801369D1C002F5ED0102FBC
:100AAC0009D1302C07D120222B789343582B50D1CD
:100ABC0010276C7802352C4B3900F318180003936F
:100ACC00FFF73CFB049101210023494202008C46B4
:100ADC00180021003039092916D80C00A7421FDD57
:100AEC00591C09D06346824206D302D10499A14213
:100AFC0002DB0123784320182C780135E9E72B2CF5
:100B0C00CBD12C789D1CC8E721004139192901D87B
:100B1C00373CE3E721006139192901D8573CDDE75F
:100B2C005A1C08D1059A23331360029B0398002B9F
:100B3C0009D107B0F0BD002E00D04042029A002A25
:100B4C00F7D0002B01D06B1E0193029B019A1A6007
:100B5C00EFE73024002FAED10827ACE7302CA2D021
:100B6C000A27A8E7A57E0008FFFFFF7F10B5FFF757
:100B7C007FFF10BD10B513000A0001000248006889
:100B8C00FFF776FF10BDC046883F002010B513005C
:100B9C000A00010002480068FFF76AFF10BDC0465A
:100BAC00883F0020F0B51E003E4B85B00390170027
:100BBC009C46082001910A00634614784D1C1B5D6D
:100BCC0029000340F7D12D2C38D12C780133951CFA
:100BDC000093002E62D0102E09D1302C07D1202288
:100BEC002B789343582B54D110266C780235012066
:100BFC0031004042FFF766FA02900120310040427A
:100C0C00FFF79CFA002301228C4618005242210067
:100C1C003039092917D80C00A64222DD002B1EDB27
:100C2C0002991300814206D302D11300A44502DBC2
:100C3C000123704320182C780135E8E72B2CC7D101
:100C4C002C78951CC4E721004139192901D8373C6F
:100C5C00E2E721006139192903D8573CDCE713007E
:100C6C00E9E7002B08DA22230120039A40421360A3
:100C7C00002F09D105B0F0BD009A002A00D04042E7
:100C8C00002FF7D0002B01D06B1E0193019B3B6012
:100C9C00F0E73024002EAAD10826A8E7302C9ED0ED
:100CAC000A26A4E7A57E000810B5FFF77BFF10BD50
:100CBC0010B513000A00010002480068FFF772FF2C
:100CCC0010BDC046883F002010B513000A0001007B
:100CDC0002480068FFF766FF10BDC046883F002041
:100CEC00F0B589B0040000F091FA4C4B06000020DE
:100CFC009C425FDD6E256421494BFF35E01845436E
:100D0C00484B7460E018484B80102D184942E0188D
:100D1C00FFF71EFAC821454B2D184900E018FFF7C4
:100D2C0017FA64212B1820000193FFF75BFA02914C
:100D3C00C82120004900FFF755FA0A0053425A41D6
:100D4C00330058330793032335001C40039105925D
:100D5C00083506942B78EF684A2B2DD1019BDC19B2
:100D6C00069B002B02D1029B002B03D10021039B7D
:100D7C008B4203D101213B2F00DC00216418013C84
:100D8C002B492B694C43E4182B6AE418AC61079B84
:100D9C00E417EC612835AB42DCD1F16C726A0123AB
:100DAC00914205DC03D1B26C316A8A4200D800232F
:100DBC000120336009B0F0BD442B02D1019BDC193A
:100DCC00DEE7069A059B002A03D1029A002A00D07E
:100DDC0001233022534300221648043B6968019CCE
:100DEC001B180132900018580490914210DC201D01
:100DFC000721FFF7F7F9791A00D50731AB685A1EAE
:100E0C00072353435918049B994204DA6418B7E733
:100E1C0004982418E5E70739F5E7C046B107000048
:100E2C004EF8FFFF4FF8FFFF93F8FFFFBFF9FFFFEE
:100E3C0080510100A87C000810B5024B186800F026
:100E4C0007F810BD883F002010B5FFF7F5FF10BD67
:100E5C00F0B58DB0060000F0D9F9B24907003000AA
:100E6C0000F0CEF9B04D041E0DD1B04BB04A186055
:100E7C00B04B1860B04B28681A605A6000F0D4F977
:100E8C002C600DB0F0BD296800295AD1286800F0FB
:100E9C00CBF9200001F037FE411C300000F018FAAD
:100EAC002860002852D12378A4493A3B5A42534136
:100EBC00E4182A1D0AAB200000F086FE0028E0DDB5
:100ECC000A9BE41823782D2B44D12E3B0134049338
:100EDC00162602ABF618002308AD33802B800AAB24
:100EEC00039302950193009607AA9549200000F000
:100EFC006BFE0028C5DD3C2332888F4E53432A8875
:100F0C00894D9B1802AA918AE12212014A439B182F
:100F1C00049A8A495A432B1D33600A9B0F35E418F7
:100F2C00BA620AAB2A00200000F04EFE002818DC42
:100F3C003368BA6A73607D4B1A6000227D4B1A606D
:100F4C009FE701F0B3FD0028A0D19AE7210001F042
:100F5C00B7FDA8E701222B3B04925A425341E418F7
:100F6C00B6E70A9B7560E41823782D2B00D092E02D
:100F7C002E3B01340493002302AAD382162207AD20
:100F8C0008AE02A92B80338052180A930AAB009248
:100F9C000393029601932A006949200000F014FE85
:100FAC00002800DD7EE0BB6A664A9B183B650A9B05
:100FBC003D00E41800230835059323782C3B5A4256
:100FCC005341E418237804934D2B00D07BE01E2270
:100FDC0002A9521802921A220AAB09AE52180393B4
:100FEC00019300965849200000F0EEFD032800D034
:100FFC0047E702AB598B4B1E0B2B00D941E73288CC
:10100C00531E042B00D93CE702ABDB8B062B00D91B
:10101C0037E7049869602870AA60EB600A9BE318B4
:10102C0004930223162407AA138002ABE4180023AE
:10103C0008AE238033800A93049B1B782F2B08D196
:10104C000AAB03930296019300944049049800F074
:10105C00BBFD3C232288534332889B1807AA118876
:10106C00E12212014A439B182B610A9A049B944675
:10107C0063441C00059B2835012B22D17868FFF7AF
:10108C002FFEBA6A294B1A603B6D9B1A5A1E93416C
:10109C00284A1360F5E601222B3B04925A42534135
:1010AC00E41868E702ABDA8A3C2353433288298878
:1010BC009B18E12212014A439B18049A5A431300CD
:1010CC0074E7012378E7049B44264A2B01D11E00C8
:1010DC0001340A220BA92000FFF7F6FD1E2302AAF9
:1010EC009B1818800B9B0493A34216D1059B002BD5
:1010FC0008D14D333B720323FB60013B3B61059BE5
:10110C007B618EE73B004D2230331A700B237B63DF
:10111C000A3BBB630023FB6383E780B22E70E8605D
:10112C007FE7C046DD8E0008C0000020DC000020F8
:10113C00E08E0008E000002018420020E48E000839
:10114C00078F0008F0F1FFFFF38E0008068F0008F0
:10115C0010B5FFF77DFE10BD00B58DB02E220949EC
:10116C00684601F092FC684601F0CDFC694602002D
:10117C00022006F055F8062000F0EAFC7F2004F06F
:10118C008FF9C046198F0008F0B50E0085B0070026
:10119C00039201F0E7FC194C33002568002D06D1B1
:1011AC00380001F0E0FC002005B0F0BD01331A78E6
:1011BC00002A1FD03D2AF9D1F2E70435286800280F
:1011CC00EED0019A310001F0A5FC0028F5D1019A6E
:1011DC002B689446634402931B783D2BEDD1236816
:1011EC003800ED1A039BAD101D6001F0BCFC029899
:1011FC000130D9E79B1B0193E0E7C0462042002059
:10120C0007B501AAFFF7C0FF0EBDC04600487047E6
:10121C00303F002010B5034B0100186800F058F85F
:10122C0010BDC046883F002010B5034B0100186864
:10123C0000F004F810BDC046883F002070B50500D2
:10124C00002910D00C1F2368002B00DAE4182800AA
:10125C0001F0A8FC1D4A1368002B05D163601460D3
:10126C00280001F0A0FC70BDA34209D921686018C8
:10127C008342F3D118685B6841182160EEE71300D4
:10128C005A68002A01D0A242F9D919685818A0420C
:10129C000BD120680918581819608242E0D11068E7
:1012AC005268411819605A60DAE7A04202D90C233F
:1012BC002B60D5E721686018824203D11068526810
:1012CC004118216062605C60CAE7C046E4000020FF
:1012DC00F8B50323CD1C9D43083506000C2D1ED2FA
:1012EC000C25A9421DD8300001F05CFC244F3A6853
:1012FC001400002C19D17B68002B04D12100300084
:10130C0000F094FB78602900300000F08FFB431C48
:10131C002AD10C233000336001F045FC03E0002D92
:10132C00DFDA0C2333600020F8BD23685B1B18D474
:10133C000B2B03D92360E418256003E06368A242F9
:10134C000DD13B60300001F02EFC200007220B3049
:10135C00231D9043C21AE7D01B1AA350E4E7536035
:10136C00F0E722006468C4E70323C41C9C43A0423A
:10137C00E2D0211A300000F059FB431CDCD1C8E745
:10138C00E4000020F0B58E6885B007000C000392D5
:10139C0001939E423CD890238A89DB001A4234D0B8
:1013AC000325096923685B1A0293636902985D43FC
:1013BC00EB0F5D19019B6D1001331B18AB4200D96B
:1013CC001D00530532D529003800FFF781FF061E9A
:1013DC0009D10C233B6040230120A28940421343D6
:1013EC00A38105B0F0BD029A216901F04EFBA389DF
:1013FC00144A1A4080231343A381029B2661F618DA
:10140C0026606561019EED1AA560019B9E4200D984
:10141C00019E32000399206801F0B1FBA368002003
:10142C009B1BA36023689E192660DAE72A0038000C
:10143C0001F0BAFB061EE0D121693800FFF7FEFE71
:10144C00C7E7C0467FFBFFFFF0B5936887B00290FB
:10145C000C001600002B63D01368039300231F00AD
:10146C000593002F2ED0A568AF4247D39023A289B5
:10147C00DB001A4242D00320216923685B1A0493D3
:10148C0063694343D80FC3185B100193049B019805
:10149C000133DB19834200D90193530544D50199DB
:1014AC000298FFF715FF051E14D10C23029A012098
:1014BC0013604023A28940421343A3810023B360ED
:1014CC0073602FE0039B1B680593039B5F680833D5
:1014DC000393C6E7049A216901F0D7FAA389184A45
:1014EC001A4080231343A381049B2561ED182560CA
:1014FC003D00019B049A63619B1AA360BD4200D915
:10150C003D002A000599206801F039FBA3685B1B9C
:10151C00A36023685D19B3682560DB1BB360D1D170
:10152C000020706007B0F0BD019A029801F03CFBFE
:10153C00051ED9D121690298FFF780FEB5E7C04698
:10154C007FFBFFFFF0B5A1B003901D008B890F004E
:10155C0016001B0611D50B69002B0ED14021FFF78D
:10156C00B7FE38603861002805D10C23039A013886
:10157C00136021B0F0BD40237B61002308AC636194
:10158C00203363761033A376079535002B78002B28
:10159C0001D0252B46D1AB1B05930CD03200390062
:1015AC000398FFF7EFFE431C00D1AEE06269059B88
:1015BC009446634463612B78002B00D1A5E0012293
:1015CC0000235242626004A9543252186E1C2360EC
:1015DC00E360A3601370A36531780522534801F0D2
:1015EC00C3FA751C00281FD12268D30604D55323D7
:1015FC0004A95B1820211970130704D5532304A9DF
:10160C005B182B21197033782A2B16D0350000214A
:10161C000A20E3682A786E1C303A092A4ED9002930
:10162C0011D117E00135B1E7404B2268C01A0123F4
:10163C008340134323602E00CEE7079B191D1B68C4
:10164C000791002B01DB0B9304E05B42E360022368
:10165C00134323602B782E2B0AD16B782A2B35D190
:10166C00079B02351A1D1B680792002B2BDB099375
:10167C002F4E29780322300001F076FA002806D08C
:10168C004023801B83402268013513432360297853
:10169C00062228486E1C217601F066FA00283CD000
:1016AC00254B002B25D10722079B07339343083387
:1016BC0007936369049A9B18636166E743430121AE
:1016CC009B183500A6E701235B42D0E700230A20D4
:1016DC001A000135636029786E1C3039092903D949
:1016EC00002BC5D00992C3E74243012352183500A1
:1016FC00F1E707AB00933A00104B2100039800E090
:10170C0000BF0490049B0133D3D1BB890D985B06B9
:10171C0000D42EE7012040422BE707AB00933A00A0
:10172C00064B2100039800F078F8EAE7478F000891
:10173C004D8F0008518F0008000000009113000825
:10174C00F7B5150001938A680B6900900C00934261
:10175C0000DA130022002B6043321278002A01D0E9
:10176C0001332B6023689B0602D52B6802332B6058
:10177C00062723681F4027D0230043331B785A1EAB
:10178C0093412268920630D422000199433200988A
:10179C00089EB047431C25D0062320682A68E168C0
:1017AC0003400025042B03D18D1AEB43DB171D409E
:1017BC00A3682269934201DD9B1AED180027BD42F4
:1017CC0020D1002010E00137E3682A689B1ABB4245
:1017DC00D2DD22000123193201990098089EB047EE
:1017EC00431CF0D101204042FEBD3020E1184331B2
:1017FC00087021005A1C45310978A2184332023373
:10180C001170C1E7220001231A3201990098089E39
:10181C00B047431CE6D00137D1E7F0B58BB0069248
:10182C000A0043320793059004920A7E0C00109B29
:10183C006E2A00D1AFE020D8632A35D008D8002A10
:10184C0000D1B5E0582A51D026004236327032E031
:10185C00642A01D0692AF7D1196820680A1D050687
:10186C002BD50D681A60002D03DA2D23049A6D42D6
:10187C0013706C4B0A27039352E0732A00D19BE040
:10188C0008D86F2A1FD0702ADED1202209680A439B
:10189C00226003E0752A16D0782AD5D1220078214F
:1018AC0045321170604A24E026001A684236111D38
:1018BC0019601368337001238CE00D681A604106BF
:1018CC00D1D52DB2CFE719682568081D18602E06F2
:1018DC0001D50D6803E06D06FBD50D68ADB2514B1B
:1018EC000A2703936F2A17D1082715E045310A7090
:1018FC004C4A03921A68216820CA1A60080644D51B
:10190C00CB0702D52023194321601027002D03D1CA
:10191C00202322689A4322602300002243331A704A
:10192C006368A360002B03DB0422216891432160D0
:10193C00002D02D1049E002B0AD0049E39002800F1
:10194C00FEF7FCFB039B013E5B5C3370AF4220D97E
:10195C00082F09D12368DB0706D5636822699342F7
:10196C0002DC3023013E3370049B9B1B2361079BDD
:10197C0009AA00932100069B0598FFF7E1FE431C82
:10198C002DD1012040420BB0F0BD4806B8D5ADB208
:10199C00B6E70500D2E71A680D68101D4969186092
:1019AC0013682E0601D5196002E06D06FBD519806F
:1019BC000023049E2361DAE71A68111D196016686A
:1019CC0000216268300001F0CFF8002801D0801BA4
:1019DC006060636823610023049A1370C7E723696E
:1019EC00320006990598079DA847431CC9D0236867
:1019FC009B0715D4099BE0689842C4DA1800C2E72B
:101A0C0022000123193206990598079EB047431C02
:101A1C00B7D00135E368099A9B1AAB42F0DCE9E7D1
:101A2C000025F7E7588F0008698F0008002370B570
:101A3C00064C05000800236003F03AFD431C03D15B
:101A4C002368002B00D02B6070BDC046140600200C
:101A5C0070B50500FC35EC6C002C0AD18021FFF729
:101A6C0037FCE864002806D00300803310C098428D
:101A7C00FCD1002070BD01204042FBE770B50C008A
:101A8C0015001F2904D9162303600120404209E0E8
:101A9C000600FC36F36C002B05D0F36CA4001C196B
:101AAC002068256070BDFFF7D3FF0028F5D0ECE768
:101ABC0070B504000D001F2904D916230360012002
:101ACC00404270BD0300FC33DB6C002B04D08A0059
:101ADC009B181A68002A08D1200000F071F82A001F
:101AEC000100200000F05AF8EBE70020012AE8D0B2
:101AFC00511C03D1162301302360E2E70024280097
:101B0C001C6090472000DCE770B50D001F2902D93E
:101B1C000120404270BD0400FC34E36C002B12D059
:101B2C00E26CAB00D21813680120002BF2D002201B
:101B3C00591CEFD00130012BECD00024280014608C
:101B4C0098472000E6E7FFF783FF0028E8D0DFE79F
:101B5C0010B5034B01001868FFF7AAFF10BDC04673
:101B6C00883F002010B5034B0A0001001868FFF7EE
:101B7C0085FF10BD883F002010B5024B1868FFF799
:101B8C0067FF10BD883F002010B5034B010018689B
:101B9C00FFF7BAFF10BDC046883F0020002370B588
:101BAC00064C050008001100236005F044FB431CA3
:101BBC0003D12368002B00D02B6070BD14060020CD
:101BCC0010B505F03AFB10BD0EB4812370B59BB077
:101BDC0001AC1FAD9B0040CDA3810190059000F09E
:101BEC0092FF0B4B60602362002360610948236302
:101BFC006364013BE38132002B00210000680095F7
:101C0C0000F013F91BB070BC08BC03B01847C046F9
:101C1C00991C0008883F00200CB48123F0B59BB0C0
:101C2C0001AC20AD06009B00080080CDA381019182
:101C3C00059100F068FF0A4B606023620023236368
:101C4C006364013B6061E3813A002B0021003000AA
:101C5C00009500F0EAF81BB0F0BC08BC02B01847C5
:101C6C00991C000870B50C000E25495F00F0A4FB10
:101C7C00002803DB236D1B18236570BDA389024A62
:101C8C001340A381F9E7C046FFEFFFFF0020704728
:101C9C00F8B51F008B8905000C001600DB0505D577
:101CAC000E23C95E0022022300F050F8A389054AD6
:101CBC0028001340A38132000E23E15E3B0000F0AC
:101CCC001FF8F8BDFFEFFFFF70B50C000E25495F44
:101CDC0000F03CF8A389421C03D1054A1340A381B0
:101CEC0070BD802252011343A3812065F8E7C046E2
:101CFC00FFEFFFFF10B50E23C95E00F015F810BD05
:101D0C0070B50500080011000022064C22601A0074
:101D1C0005F086FA431C03D12368002B00D02B60FE
:101D2C0070BDC04614060020002370B5064C05009B
:101D3C000800236005F07AFA431C03D12368002BBA
:101D4C0000D02B6070BDC0461406002070B5050095
:101D5C00080011000022064C22601A0005F069FAF6
:101D6C00431C03D12368002B00D02B6070BDC046F0
:101D7C001406002070B514004B1C03D101256D42D4
:101D8C00280070BD938920229343226BA381CEB28D
:101D9C00CDB26368002A10D0626B9A4207DD2368CB
:101DAC00013B23601E70636801336360E8E7210028
:101DBC0000F016FB0028F2D0E0E721692268002928
:101DCC0007D0914205D2511E0878A84201D121605A
:101DDC00EAE7E363230040332363032363632300B5
:101DEC004233A2631E7023600123DEE710B50C00A2
:101DFC00096B00290ED023004033994201D0FFF724
:101E0C001DFA0020E36B20636360834202D0A36B56
:101E1C00236010BD2369012023600023A289636025
:101E2C0020331343A3814042F3E7F0B5AD4CA544F6
:101E3C000C0000214891499105A94A91BE210090BE
:101E4C00A948490045AD6850C025A8486D0045A972
:101E5C004851049313780193002B00D13FE10821E2
:101E6C00A34F561CFB5C0B401DD06368002B11DD8F
:101E7C00082123681A78BA5C0A4201D13200E9E7DA
:101E8C00499A013301920132499262682360013A06
:101E9C006260EAE745AB5B592100009801939847D3
:101EAC000028E5D0EAE7019925296DD147934593A0
:101EBC0053782A2B02D11A3B4593961C37000A20E3
:101ECC0039787B1C02930B00303B092B24D9894EAB
:101EDC000322300000F048FE002807D00123801BAD
:101EEC008340459A029F1343039245933B787E1C93
:101EFC00672B35D8652B00D3B6E0472B14D8452B70
:101F0C0000D3B1E0002B00D1E6E0252B3CD003231D
:101F1C004B930733469366E0479B029F03934343DF
:101F2C00303B5B184793CBE75B2B00D178E010D8A4
:101F3C00582BECD1459A01928022019992000A43C8
:101F4C004592102246926E229A429B415B42033389
:101F5C0048E0632B00D170E0642BD8D10A22F1E762
:101F6C00702B35D008D86E2B00D16EE037D8692B8A
:101F7C00CDD100234693EAE7752BEFD0782BD9D03F
:101F8C00732BC4D102232DE06368002B0FDD236873
:101F9C0001991A788A4200D0A1E00133626823606B
:101FAC00499B013A019301336260499366E745AB63
:101FBC005B5921000098029398470028E7D0489875
:101FCC00002800D084E00138A7239B009D44F0BD7D
:101FDC00459A0192202201990A434592AAE70823C7
:101FEC004693043B4B936368002B3FDD459B019369
:101FFC005B0606D423683E491A788A5C08210A429B
:10200C003DD14B9B022B4FDC04AB220045A9009821
:10201C0000F074F8012862D0022800D02EE7CEE739
:10202C00310005A800F0E6FD459B06000193402316
:10203C00019A134345930123D4E7459B0193402315
:10204C00019A134345930023CCE74598C30600D56A
:10205C0014E7049B499A191D04911B68C70701D505
:10206C001A800BE71A6009E70523BBE745AB5B5900
:10207C0021000098019398470028B7D09FE7499A10
:10208C000192013249926268013A6260002A02DDD3
:10209C0001332360AEE745AB5B59210000980193F7
:1020AC0098470028A6D08AE7042B06DC04AB220054
:1020BC0045A9009800F07EF8ACE70F4B002B00D13F
:1020CC00DCE604AB220045A9009800E000BFA1E7C4
:1020DC00A3895B0600D477E70120404274E7489857
:1020EC0072E7C04664FDFFFF811D0008F91D000862
:1020FC00A57E00084D8F000800000000F7B5150004
:10210C008A6801900C00002A05D1896901320029E6
:10211C0000D0023AA2602268D20603D41A68111DBC
:10212C00196017680026A069002813D0012808D16F
:10213C002B6862691B78D35C002B0BD1002E27D146
:10214C00FEBD022824D12B68194A1B78D35C0822C7
:10215C0013421DD1102223680136134203D12B6880
:10216C001B783B7001372A686B6801322A60A268C1
:10217C00013B013A6B60A260002A09D0002BD2DC33
:10218C00C0235B00E3582900019898470028CAD067
:10219C0010232268134006D1E2680132E260A26982
:1021AC00002A00D03B70236900209E192661C7E7E6
:1021BC00A57E0008F0B50C008DB00293784B05900D
:1021CC00160009AA23CB23C2764B0693A369032BD3
:1021DC0001D0754B0693AE220020A3685200591E05
:1021EC000490914205D95E3BFF3B04935E23FF3381
:1021FC00A36023001C330193D023002722681B010A
:10220C0013432360019B0393336809A81978BB001F
:10221C000222185800F0A8FC00282BD0012F62D104
:10222C006368002B06D1083322686360F933FF33EF
:10223C00134323605D4B226813402360A3685A1E2E
:10224C00A260002B16D033685A1C32601B78039A9C
:10225C0013707368551C013B73600395002B09DCEC
:10226C00C0235B00E358310005980793984700287A
:10227C0000D07FE00137032FC6D16368002B01D15A
:10228C000A3363601021002763686069C91A484BE0
:10229C00C91800F0AFFC039DA36822680393002BC0
:1022AC0041D03168636908781B5C002B3BD0302827
:1022BC0029D180231B011A4225D0049B0137002B06
:1022CC0005D01A00039B013A01330492A360736892
:1022DC00013B7360002B1DDD336801333360A36851
:1022EC00013BA360D8E7022FA8D1C021802322682C
:1022FC00C90011409B009942BFD1F13BFF3B636089
:10230C00F033134399E72B4B134023600B782B705E
:10231C000135DCE7C0235B00E358310005980393DB
:10232C0098470028DBD02368DB050ED5019B9D4226
:10233C0007D9BE23013D5B002978E358320005988C
:10234C009847019B01209D4227D0102223681A40F8
:10235C001CD12A70636801990598069EB047029BB0
:10236C0021681B688A0607D51A1D02990A601B682A
:10237C00186008E00027D6E71A1DCE07F5D502999C
:10238C000A601B681880E3680133E3600020019B3E
:10239C00ED1A2369EF19DF1927610DB0F0BDC046A6
:1023AC00087D0008790B0008B50C0008FFFAFFFF48
:1023BC007A8F0008FFF6FFFF70B5050008001100CA
:1023CC000022064C22601A0004F024FF431C03D1A7
:1023DC002368002B00D02B6070BDC0461406002073
:1023EC000B00F7B50D6B40330C009D421CD18026C1
:1023FC00F6003100FEF76CFF002802D101204042AC
:10240C00FEBD23002063666342331A78104BC2541E
:10241C00230041331A780F4BC2542A780E4BC25406
:10242C00C01820600020EBE74E6B290073001A00E7
:10243C00019300F0B9FB051EE0D0871901003200B2
:10244C00380000F022FB019B276025636363E9E7FA
:10245C00FF030000FE030000FD030000F8B50600BA
:10246C000D0014004B1C03D101256D422800F8BD52
:10247C00002804D0836B002B01D100F05FF92022DF
:10248C00A38993431BB2A3819BB25A0713D4DA06D8
:10249C00EAD508273B420AD02100300000F0DCF8D6
:1024AC000028E1D1A389A060BB43A381A0610423D0
:1024BC00A2891343A381226BEFB26368EDB2002AA9
:1024CC0011D0626B9A4207DD2368013B23601F70B9
:1024DC00636801336360C9E721003000FFF780FFB8
:1024EC000028F1D0C0E721692268002907D0914269
:1024FC0005D2511E0878A84201D12160E9E7E363B7
:10250C002300403323630323636323004233A2631A
:10251C001F7023600123DDE710B5034B0A00010097
:10252C001868FFF79BFF10BD883F0020F7B50C2201
:10253C008B5E0C0099B205000A0765D4802212014B
:10254C001A436368A281002B04DCE36B002B01DCD3
:10255C000020FEBDA76A002FFAD000232E682B6046
:10256C0080235B011A4038D0206DA3895B0706D508
:10257C006368C01A236B002B01D0E36BC01A0200F6
:10258C00E16900232800A76AB847A189431C06D13A
:10259C002B681D2B35D82E4ADA40D30731D50022B3
:1025AC002C4B62600B4022691BB2A3812260DB04BE
:1025BC0005D5431C02D12B68002B00D12065216B63
:1025CC002E600029C4D023004033994202D0280049
:1025DC00FEF734FE00202063BBE70123E1692800ED
:1025EC00B847431CC1D12B68002BBED01D2B01D08A
:1025FC00162B01D12E60ABE74023A2891343A38194
:10260C00A7E740230B43FAE72769002FA0D02368E4
:10261C002760DB1B019300238A0700D16369A36049
:10262C00019B002B00DC93E7019B3A00E169280039
:10263C00666AB047002806DC40230120A28940428C
:10264C001343A38185E7019B3F181B1A0193E7E70E
:10265C0001004020FFF7FFFF70B504000D000028BB
:10266C0004D0836B002B01D100F068F800200C2201
:10267C00AB5E834203D029002000FFF757FF70BDEB
:10268C0010B5011E05D1054B0549186800F0FFFA7D
:10269C0010BD044B1868FFF7DFFFF9E7A47C0008B6
:1026AC0065260008883F0020002310B50400036055
:1026BC004360836081810366C281036143618361EE
:1026CC0019000822583000F0E9F9054BE461236247
:1026DC00044B6362044BA362044BE36210BDC0461F
:1026EC00711C00089D1C0008D51C0008011D000869
:1026FC0010B5024900F0CBFA10BDC04665260008A3
:10270C0070B564254A1E55430E0029007031FEF742
:10271C00DFFD041E08D000212A00016046600C3049
:10272C00A060643200F0BAF9200070BD10B5024B05
:10273C001868FFF7DDFF10BDA47C0008826B10B594
:10274C000400002A1AD10E4B0321C3630300FC338F
:10275C00596501005931FF311A65996540680421AA
:10276C00FFF7A2FF01220921A068FFF79DFF0222BB
:10277C001221E068FFF798FF0123A36310BDC04648
:10278C00FD260008F8B51C4B07001E68B36B002B28
:10279C0002D13000FFF7D2FF4D36FF36B4687368B4
:1027AC00013B04D53368002B1CD03668F6E70C22AD
:1027BC00A55E002D14D12000104B256625606560A8
:1027CC00A560E36025616561A56108222900583088
:1027DC0000F064F9256365636564A5642000F8BDA9
:1027EC006434DDE704213800FFF78AFF041E3060F3
:1027FC00DBD10C233B60F1E7A47C00080100FFFF58
:10280C00F7B597B201933B00140C86B2050C7343D9
:10281C006F4366436543F6191C0CA4199C46A742EA
:10282C0002D980235B02ED186346260C751924042B
:10283C009EB2019BA4194343200051435B195918C4
:10284C0003B0F0BDF0B5060085B00F0015001C00FC
:10285C008B4265D801D1824262D821002800FDF755
:10286C0029FD390000903000FDF724FD009B21006C
:10287C001B1A1A0028000393FDF710FD009001911C
:10288C00019BBB4246D802D1009BB34242D8009B6D
:10289C00019C039A01200021F61AA741FDF7FEFCCA
:1028AC00039B002B2FD0019B009ADB0754081C4381
:1028BC00019B5D08039B9C46BD422ED801D1B442BE
:1028CC002BD832003B00121BAB41012692185B4106
:1028DC000027B6185F4101235B429C446346002BE2
:1028EC00EAD180197941039A04000D0030003900B7
:1028FC00FDF784FC039A06000F00FDF7CFFC241AA9
:10290C008D41200029000A9B002B01D01E605F60C6
:10291C0005B0F0BD00200021C2E7B6197F41DAE70F
:10292C0000200021EFE7F7B516001F000090019181
:10293C0000F013F804000D0002000B003000390009
:10294C00FFF75EFF009A019B121A8B410899200039
:10295C000A604B60290003B0F0BDF0B585B0009063
:10296C000191002103910199002909DA009C019D34
:10297C0000216042A941009001910121494203913B
:10298C00002B07DA03991000C943039119000023A7
:10299C0042428B41009E019F1C00019B15009C42F2
:1029AC0000D96FE003D1009B9A4200D96AE0210064
:1029BC002800FDF77FFC029000980199FDF77AFC46
:1029CC00029B21001B1A1A0028000293FDF766FCDB
:1029DC00019B04000D0099424ED802D1009B9842F5
:1029EC004AD8009E019F029A01200021361BAF415C
:1029FC00FDF754FC029B002B34D0EB079C4662463F
:102A0C006308134300936B080193029B01249C46BB
:102A1C000025019BBB4232D802D1009BB3422ED879
:102A2C0032003B00009E019F921BBB4192185B4100
:102A3C0012196B4116001F0001235B429C44634634
:102A4C00002BE6D180197941029A04000D00300068
:102A5C003900FDF7D3FB029AFDF720FC241A8D41B7
:102A6C0020002900039B002B04D003000C00002144
:102A7C005842A14105B0F0BD00200021BAE7B619BB
:102A8C007F41D9E700200021ECE7002310B59A42E2
:102A9C0000D110BDCC5CC4540133F8E7030012180C
:102AAC00934200D1704719700133F9E702780B7823
:102ABC00002A03D0013001319A42F7D0D01A704766
:102ACC0003000A7801311A700133002AF9D17047DA
:102ADC0070B50500080016000C0000F014F8421C3C
:102AEC00B24201D9FEF738FBAC4204D8A3189D4280
:102AFC00F8D3AC4202D1AB189C42F3D3280021008E
:102B0C00FFF7C3FF70BD0023C25C0133002AFBD169
:102B1C00581E704730B5131E0BD00024013A035DCC
:102B2C000D5DAB4204D1944202D00134002BF6D19E
:102B3C005B1B180030BD70B50E0004001100300096
:102B4C001500FDF74FFB002E07DB002901DA0130E1
:102B5C00491B20606160200070BD0029F9DD01383F
:102B6C004919F6E770477047C9B28218904201D1F3
:102B7C000020704703788B42FBD00130F6E710B58C
:102B8C00884202D98B18984203D3002307E08B5C50
:102B9C008354013AFBD210BDCC5CC45401339A422D
:102BAC00FAD1F8E770477047F8B507000D0016002A
:102BBC00002905D11100FEF78BFB04002000F8BDA5
:102BCC00002A03D1FEF73AFB3400F7E700F081F856
:102BDC002C00B042F2D231003800FEF779FB041E13
:102BEC00ECD029003200FFF750FF29003800FEF727
:102BFC0025FBE3E770B50B7805005E2B18D04A1C5B
:102C0C00002128006C1CFF3401700130A042FBD164
:102C1C00501E002B0BD001204140E9541478501C5D
:102C2C002D2C0CD05D2C02D0002C05D1100070BDC9
:102C3C008A1C4B780121E4E723000200EDE756786B
:102C4C005D2EF9D0B342F7DC02320133E9549E42D7
:102C5C00FBDCE3E7F7B54D30FF30040000260191B3
:102C6C00002C01D13000FEBDA5686768013F01D57D
:102C7C002468F5E7AB89012B07D90E22AB5E013333
:102C8C0003D02800019B984706436435EEE7F7B55F
:102C9C000400070000264D340191FF34002C01D1B3
:102CAC003000FEBD6368A5680093009B013B009358
:102CBC0001D52468F2E7AB89012B08D90E22AB5E53
:102CCC00013304D029003800019B98470643643532
:102CDC00EBE70B1F1B68181F002B01DA0B58C018F1
:102CEC007047000070B503F01BFF040003F01AFFDF
:102CFC00050003F019FF2A00030021000C4804F022
:102D0C00CCF900F03BFB002811D10A4803F030FD50
:102D1C00094803F02DFD094803F02AFD084803F08B
:102D2C0027FD084803F024FD074803F021FD70BD82
:102D3C0092810008C001002024020020F80000202D
:102D4C005C01002088020020EC02002070B5134CBE
:102D5C00134B220003CB03C2124B1B68DB682361AD
:102D6C00200003F003FF00280FD10F4DFA26280096
:102D7C0003F0AEFCB600AB68042B0AD90B4804F088
:102D8C008CF9200003F005FFFBE7094804F085F9F6
:102D9C00E6E7300003F05AFCEDE7C046684200203D
:102DAC0024420020D0470020785E00201F820008BB
:102DBC00FE81000870B505002C0068342378002BC8
:102DCC0015D00F4B2900186803F0B8FE002802D06C
:102DDC000C4804F062F9696E0B4803F09BFC002868
:102DEC0009D10A4803F074FC2378002B02D108485F
:102DFC0004F053F970BD2378013B2370DCE7C04627
:102E0C00D0470020B9820008085F0020885E0020AF
:102E1C00CE82000810B50100040000220B4803F01C
:102E2C0081F9002810D1230068331B78616E0133BF
:102E3C005943074803F06EFC002804D0054804F001
:102E4C002CF97420404210BD1620FBE76C5F00206B
:102E5C00885E00205482000830B5144C9DB02000D0
:102E6C00FA2503F035FCAD00A368042B15D91048E6
:102E7C00012404F012F964426C22002101A8FFF72E
:102E8C000DFE220001A90B4803F09CF9002808D084
:102E9C00094804F002F91DB030BD280003F0D6FB40
:102EAC00E2E701A8FFF786FFE6E7C046785E002060
:102EBC00708200086C5F00208782000810B5034BFD
:102ECC000100186800F0E4F910BDC046D04700209E
:102EDC0010B5B6B0082200216846FFF7DFFD6C2262
:102EEC0000211BA8FFF7DAFD234B6022002103A869
:102EFC000293FFF7D3FD6C2202A91BA8FFF7E8FD94
:102F0C0002221E4B1BA8349335AB1A70FFF782FFBD
:102F1C0000282ED01A4C6946206803F0F7FDE123F7
:102F2C0069465B022068009303F0E6FD64220021F1
:102F3C001BA8FFF7B3FD13491BA8FFF7C1FD1BA886
:102F4C00FFF768FF6946206803F0E0FD96236946A9
:102F5C009B012068009303F0CFFD642200211BA885
:102F6C00FFF79CFD08491BA8FFF7AAFD1BA8FFF75C
:102F7C0051FF002036B010BD41540D0088130000E5
:102F8C00D0470020E3820008EA82000810B5FFF762
:102F9C0095FF002802D00B4804F07FF80A4C6068BB
:102FAC0003F08AFE002802D0084804F076F8A068E6
:102FBC0003F082FE041E02D0054804F06EF82000D7
:102FCC0010BDC046F0820008D047002008830008DE
:102FDC002683000810B5094C0021606803F087FEB9
:102FEC00642003F033FB0121606803F080FEFA20BB
:102FFC00C00003F02BFB002010BDC046D0470020C2
:10300C0070B5CEB0C82215491CA8FFF73EFD0021B3
:10301C000125642201A81B91114EFFF73FFD6C2284
:10302C001CA901A8FFF754FD1BAC01A81A9625702A
:10303C00FFF7F0FE00280ED10100642201A8FFF773
:10304C002DFD6C2235A901A8FFF742FD01A81A96A7
:10305C002570FFF7DFFE4EB070BDC046147D000832
:10306C00983A000070B5B6B0160004000D0064224A
:10307C00002102A8FFF712FD022E1AD12300104ADC
:10308C000095642102A8FDF7C2FC6C2200211BA84C
:10309C00FFF704FD6C2202A91BA8FFF719FD022201
:1030AC00084B1BA8349335AB1A70FFF7B3FE36B040
:1030BC0070BD1620042EFAD100952300024AE0E7D9
:1030CC009083000888130000AA83000810B5154CE3
:1030DC000422A1892420FFF7C5FF002820D1E18913
:1030EC0004222530FFF7BEFF002819D1218A0422C3
:1030FC002630FFF7B7FF002812D1618A042227304F
:10310C00FFF7B0FF00280BD1E18A04222830FFF72B
:10311C00A9FF002804D1217E02222330FFF7A2FF51
:10312C0010BDC046D047002000B5CFB06C220021A6
:10313C0001A8FFF7B3FCC82211491CA8FFF7A5FC96
:10314C00FFF748FF1CA96C2201A8FFF7C1FCFA236A
:10315C0002229B001A9301A81BAB1A70FFF75AFEB0
:10316C00084B6C2235A901A81A93FFF7B1FC01A8F2
:10317C00FFF750FE002801D1FFF7A8FF4FB000BDAC
:10318C00DC7D0008983A000070B51648FFF7FEFE8B
:10319C00011E02D0144803F080FF144CFA252000C5
:1031AC0003F096FAAD00A368042B07D9FFF790FE45
:1031BC00002807D00E4803F070FF70BD280003F004
:1031CC0045FAF0E70B48012403F082FA644221002F
:1031DC00094803F09FFA094B0422D98A2820FFF7EB
:1031EC0041FFF4E7458300084C830008785E00201B
:1031FC0074830008E85E0020985E0020D047002011
:10320C0073B56B46DD1D00232B70436804005B6CAB
:10321C00002B03D11D4803F040FF73BD98470028D5
:10322C00F8D063685B6B002B10D020009847002807
:10323C000CD063689B69002B03D00122290020006D
:10324C00984700222900E06802F06CFF00266368B2
:10325C002E705B6AB342E0D020009847B042DCD0BD
:10326C0032002900206902F0ADFF6368B04207D13B
:10327C005B69B342D1D00122290020009847CCE7EA
:10328C001B6A002BC9D020009847C6E7CA830008E8
:10329C0070B50400080002F059FE230026C826C3AE
:1032AC006368002B06D09B6C002B03D022000549D1
:1032BC002000984763689B6A002B01D02000984738
:1032CC00002070BD0D320008F7B50500019101F02A
:1032DC0073F8002D26D1244C019A266829003368F6
:1032EC009F682B007868FFF78BFA204A0023FCF7C5
:1032FC00B5FF002901D001204042A0607A7A7368A2
:10330C00002A04D0221DDB680021300098470121DF
:10331C00080001F0BDF9164B1A795988187801F09C
:10332C005FF8F7BD012DF6D10321124A136B0B4345
:10333C001363114A802113004902D0690842FCD161
:10334C008022D203D9691142FCD0C0209968800335
:10335C000143996099680A439A60022219680A43EA
:10336C001A6001F0B1F9D6E75003002040420F007B
:10337C0008060020001002400038014070B50D4DC9
:10338C00280002F0E3FD0C4C206000280AD04368B2
:10339C001B6898470020094B20746360231DA060B4
:1033AC00E36070BD0648290003F077FE162040420A
:1033BC00F7E7C046E883000850030020F36B0008D1
:1033CC00EE83000810B5024803F082F910BDC04628
:1033DC00A85E002010B50C4803F05FFE0022C82147
:1033EC00022000F0FDFF022210212320FFF73AFEFD
:1033FC00002802D0054803F050FE1022044B1A7628
:10340C000022044BDA7210BD2F8400086984000876
:10341C00D04700206403002070B50A4CE57A002DDB
:10342C000ED1094E0948F18903F037FEFA21F389D0
:10343C00890059432A00064803F038FB0123E37244
:10344C0070BDC04664030020D047002000840008F3
:10345C00F45D0020F8B5234D0021280003F05AF943
:10346C00214E041E214F07D1214803F016FEBC60EB
:10347C000327B4603800F8BD0021300003F04AF98E
:10348C00041E0CD11B4803F008FEBC60AC601A484B
:10349C0004F09BFA194BDC72194B9F8AEAE738004F
:1034AC00002103F037F90227041EE3D1154803F07D
:1034BC00F4FDB460AC60104804F087FA0F4B12486E
:1034CC00DC720F4CA18903F0E8FDA3890F4903209E
:1034DC00594300F011FB0E4803F0DFFD012000F012
:1034EC0057FBC7E7A85E0020185F0020285F00206C
:1034FC00B4840008DF840008F45D0020640300201D
:10350C00D04700201F8500084285000840420F006C
:10351C007E85000810B5024803F0BFFD10BDC04603
:10352C008184000810B5024803F0D2F810BDC046E3
:10353C00B85E002010B50E4803F0AFFD0022C82184
:10354C00012000F04DFF022211212320FFF78AFDFC
:10355C00002802D0074803F0A0FD1122064B0820DA
:10356C001A7600F015FB0022044B9A7210BDC0466F
:10357C00E285000869840008D0470020640300201D
:10358C0070B51C4C8EB0A57A002D0ED11A4E1B486E
:10359C00718A03F082FDFA21738A890059432A004B
:1035AC00174803F083FA0123A372647A230708D423
:1035BC00144B1B78002B04D00420044003D000F0E3
:1035CC00E7FA0EB070BD00F0B1FD0F4B5B7F002B26
:1035DC00F7D03222210001A8FFF760FA01A800F011
:1035EC001BFC01A803F066FB0028EAD1074803F096
:1035FC006FF8E6E764030020D0470020A68500089A
:10360C00205E0020055C00208C480020C85E002055
:10361C0070B500211E4803F07DF81E4E041E1E4D91
:10362C000ED11E4803F039FD21000C2000F064FA85
:10363C001B4804F0CAF9B460AC600234200070BDC1
:10364C000021300003F066F8041E06D1154803F083
:10365C0024FD21000C2000F04FFA0021280003F07B
:10366C0059F80324061EE9D10F4D1048298A03F09E
:10367C0014FD0F4B0F499E722B8A0F20594300F0FB
:10368C003BFA0D4803F009FD092000F081FAD5E75B
:10369C00285F0020C85E0020B85E0020438600082A
:1036AC00205E002088860008D0470020D1860008C4
:1036BC006403002040420F000D87000810B502483B
:1036CC0003F0EBFC10BDC04616860008F7B56B4640
:1036DC000122DE1D0023C56852420069310033709F
:1036EC0002F070FD071E0CD12C0031782048FF34FD
:1036FC0003F0D3FCE379002B04D0237A002B01D008
:10370C00E771F7BD33782022190091430D2901D0C0
:10371C000A2B0ED1A868E57A425D9A420FD1013589
:10372C00EDB2E572FFF7EFF901238542E9D1A372FF
:10373C00E7E7217A002902D0E27A002A01D000239F
:10374C00F5E72F79607A9F4206D10130C0B26072E2
:10375C008142D6D1A272D4E73224444320000C30EB
:10376C002818FFF7D0F92D1933782D182B73C8E7CB
:10377C0032870008F0B587B004AB0122DE1D0023B0
:10378C0084680500524231000069337002F01AFD62
:10379C00071E2AD1317821480C3403F07EFCFF340B
:1037AC0001972B7DBB421BDD23000C3BFF3B02939F
:1037BC002378002B2DD01A4BE058FFF7A4F9FF21EA
:1037CC006A7D0840531C834211D1154BE358039377
:1037DC00995C04AB07331B78994208D1029BEB60D0
:1037EC00019BAB756B7D01336B7507B0F0BD00238E
:1037FC002178994206D00A4BE3589B5C32789B1A8D
:10380C005A425341019A2370002A00D00123DBB2A3
:10381C00019311340137FF34C3E7C04632870008E7
:10382C00F5FEFFFF10B5024803F037FC002010BD79
:10383C004087000810B5044803F02FFC0021082035
:10384C0000F05AF9002010BD59870008F0B500248B
:10385C00642701269DB0204803F01FFCFFF7BAFB3C
:10386C001B946422002101A8FFF718F93900614369
:10387C001A4B6C22C91801A8FFF72AF9184B1BAD7B
:10388C0001A81A932E700134FFF7C4FA322002F00B
:10389C00DDFE0F2CE5D100246427012664220021D3
:1038AC0001A8FFF7FBF8390061430E4B6C22C918D5
:1038BC0001A8FFF70DF90C4B01A81A932E700134D7
:1038CC00FFF7A8FA322002F0C1FE212CE6D1FFF757
:1038DC00FDFB00201DB0F0BD3587000844490020D9
:1038EC0088130000204F0020B888000010B50C4849
:1038FC0003F0D3FB00F0C2FA642002F0A7FE00F044
:10390C0099FCFA20400002F0A1FE00F0B7FAC820A2
:10391C0002F09CFE0021042000F0EEF8002010BD07
:10392C004D87000810B50D4803F0B7FB0022C821E5
:10393C00032000F055FD0A4B1B7A002B0CD0022201
:10394C0000212320FFF78EFB002802D0054803F04E
:10395C00A4FB0022044B1A7610BDC04699870008C0
:10396C006403002069840008D0470020F0B5154F8F
:10397C0087B03C7A002C10D1134801AD03F08DFBBD
:10398C002A00124B43CB43C2052603CB03C2A30030
:10399C00EB58002B03D101233B7207B0F0BD9847C5
:1039AC0000280BD0FA20013EF6B2400002F04EFE89
:1039BC00002EECD1064803F070FBECE70134E4B2C6
:1039CC00E5E7C04664030020668700080C7C00080D
:1039DC008C870008FA2110B589000F4803F05DFBB5
:1039EC000E490F4802F096FE002802D10D4B187DAF
:1039FC0010BD0D4803F051FB0A210C4803F04DFBA0
:103A0C000B49032000F078F80A4803F046FB01202C
:103A1C0000F0BEF80120EBE7E087000840420F0001
:103A2C00185F0020D0470020128800084388000847
:103A3C00809698007B88000810B5024803F02DFB97
:103A4C0010BDC046C087000870B5174C174B22003C
:103A5C0003CB03C2200003F089F8002818D1144DC1
:103A6C00FA26280002F034FEB600AB68042B13D9FA
:103A7C001048FA2503F011FBAD000F4B9B68002B8F
:103A8C000ED0200003F085F8322002F0DFFDF8E7BD
:103A9C000A4803F002FBDDE7300002F0D7FDE4E753
:103AAC00280002F0D3FDE8E7640300202048002042
:103ABC00785E0020BE880008E85E00209C88000824
:103ACC0010B5094B0949587A430700D40849074AED
:103ADC00C30700D4064A054B000700D4044B054825
:103AEC0003F0DBFA002010BD64030020938F000864
:103AFC004B8F000842890008F8B5012405000F001F
:103B0C0020420DD01D4E737A234209D11C4803F07C
:103B1C00C4FAFFF775FA00282DD1737A1C4374721E
:103B2C00042425420BD0154E737A234207D1154835
:103B3C0003F0B3FA00F0B0FB737A1C4374720824E0
:103B4C0025420BD00D4E737A234207D10E4803F059
:103B5C00A4FA03F0ABF8737A1C437472AB0706D566
:103B6C000A4803F09AFA39000020FFF7ADFBFFF783
:103B7C00A7FF0020F8BD16204042FBE7640300209D
:103B8C00D3880008F38800080D89000828890008EC
:103B9C0070B50126040030420DD0194D6B7A3342BA
:103BAC0009D0FFF7C1FA002827D1164803F075FA9F
:103BBC006B7AB3436B72082634420BD0104D6B7A80
:103BCC00334207D003F074F80F4803F066FA6B7AAF
:103BDC00B3436B7204252C420BD0094C637A2B42F5
:103BEC0007D000F03BF9094803F057FA637AAB436E
:103BFC006372FFF765FF002070BD16204042FBE7A3
:103C0C00640300206F890008888900089C890008DB
:103C1C0010B5084C084821780131C9B2217003F065
:103C2C003CFA23780E2B01D100232370034802F0B9
:103C3C004FFD10BD0E060020D68A0008085F00203C
:103C4C0010B5034803F029FA024802F041FD10BDFB
:103C5C00C0890008F85E0020F7B50400474803F05F
:103C6C001CFA200010220C3001A9FCF78FFF019BDD
:103C7C0007001B78002B16D13E34102201A920001E
:103C8C00FCF784FF019B06001B78002B0BD1FBB2C9
:103C9C0085B2212B1AD12000FEF735FF042803D062
:103CAC00374803F0FAF9F7BD364B37485B79023BDE
:103CBC00012B24D9354B3648DD8202F009FDF9B2CF
:103CCC00344803F0EAF9B1B233480BE0222B24D18B
:103CDC002000FEF718FF022807D02000FEF713FF84
:103CEC0001002E4803F0D9F9DDE7264B5B79013B47
:103CFC00012BDFD8012D05D1244B9882284802F0E6
:103D0C00E7FCD7E7022D03D10322204B9A82F5E77B
:103D1C00002DC8D11D4B0122F8E7242B09D120001E
:103D2C00FEF7F1FE042801D01E48BAE7174B9D811F
:103D3C00C0E7252B09D12000FEF7E5FE042801D0B1
:103D4C001948AEE7114BDD81B4E7262B09D12000D1
:103D5C00FEF7D9FE042801D01448A2E70B4B1D82B4
:103D6C00A8E7272B9FD12000FEF7CDFE042801D019
:103D7C000F4896E7054B5D829CE7C046CF8900084B
:103D8C00E289000864030020285F0020D04700204F
:103D9C00985E0020A88A0008B78A0008F9890008F4
:103DAC00185F00201C8A0008418A0008658A0008F8
:103DBC00878A000870B50400074803F06EF92100EB
:103DCC00064D0C31280003F068F9210028003E3123
:103DDC0003F063F970BDC046C28A0008258B000849
:103DEC0070B50400074803F058F92100064D0C315A
:103DFC00280003F052F9210028003E3103F04DF960
:103E0C0070BDC046AF890008258B00080022014B0D
:103E1C001A707047045C002000B50E4B8BB05A1C16
:103E2C00D27F30210892DA7F07929A7F06925A7FCE
:103E3C0005929A6904921A6903925A6902921A7F3E
:103E4C000192DA6800929B68034AFCF7E0FD0020BF
:103E5C000BB000BD8C480020528B000810B5064CEE
:103E6C000121606802F043FF642002F010FF002182
:103E7C00606802F03CFF10BD8C48002010B50C4C63
:103E8C000021206802F033FF642002F000FF0121C2
:103E9C00206802F02CFF0121606802F028FF6420EA
:103EAC0002F0F5FE0021606802F021FF10BDC04653
:103EBC008C480020F7B501230024144E144D0190BA
:103ECC000F003000110000222B7002F0EFFD0822D1
:103EDC00A446104B2978002905D1300003F075FD5C
:103EEC0060426041FEBDD969114200D01A622020A7
:103EFC00D969014208D0998C019801550134BC4212
:103F0C00E8D161462970E5E7C046E3E74C5E002046
:103F1C00045C0020004800400123F7B5144E154DF9
:103F2C0001900F003000110000222B70002402F0D1
:103F3C00BDFD8022200094460F4B2A78002A05D123
:103F4C00300003F042FD60426041FEBD6146DA691B
:103F5C000A420AD0402201991A62621C0C5D1C852F
:103F6C00BA4200D128701400E7E7C0462200FAE7F5
:103F7C004C5E0020045C00200048004010B500247A
:103F8C0003782A2B06D0002B01D1180010BD5C4001
:103F9C000130F5E7102201300021FCF795FEC2B28A
:103FAC0001239442F1D0C1B22200024803F075F80B
:103FBC000023EAE7E58A0008F0B585B006000D009D
:103FCC00FFF7DCFF0E24002812D033000E24002152
:103FDC0004E02C2A01D11970013C01331A782A2AE9
:103FEC00F7D19A1C921B2A6000221A70944258D066
:103FFC00200005B0F0BDA01E052826D87378FCF76C
:10400C0057F8033203373C46002B1DD0019B02931B
:10401C00029B01330393029B1B782E2B17D1002696
:10402C00029B254F1E700A2231000198022C10D1E0
:10403C00FCF7ACFD0A22B86031000398FCF7A6FD32
:10404C00F8602E22029B1A70013D019E2AE0039B10
:10405C00DDE7FCF79BFD0A22786131000398FCF741
:10406C0095FD3861EDE7002BEED0134A1377EBE7A3
:10407C00002BE9D0104A9361E6E7002BE4D00A222A
:10408C0000210198FCF782FD0B4B5877DCE7002BE5
:10409C00DAD00A2200210198FCF778FD064B9877BC
:1040AC00D2E70625731C01933378002BCDD1013454
:1040BC000E2CA0D12C009BE78C480020F8B50500F5
:1040CC000E00FFF75BFF0C24002812D02B000C24F1
:1040DC00002104E02C2A01D11970013C01331A781B
:1040EC002A2AF7D19A1C521B326000221A70944271
:1040FC000FD02000F8BD072C09D16B78002B05D010
:10410C000A223800FCF742FD074BD877013E3D00F0
:10411C0000E0012629786F1C0029F8D101340C2C01
:10412C00E9D13400E5E7C0468C4800208022F0B588
:10413C000025284C9200A54400210EA8FEF7AEFCE9
:10414C00254A26490EA8FFF7B5FE0EA9244800956E
:10415C00012702F0A2FF0EAC2378002B01D0032D17
:10416C0010D13222002101A8FEF798FC01A8FFF71C
:10417C0053FE01A91B4802F090FFE81E8F239B0001
:10418C009D44F0BD242B10D1062217492000661C3B
:10419C00FEF7C0FC00280CD169463000FFF70CFF7D
:1041AC00002800D13D43009BE41800230134009308
:1041BC00D2E706220D492000FEF7ACFC0028F4D112
:1041CC0069463000FFF77AFF0028ECD102231D432B
:1041DC00E9E7C046C4FDFFFFC4090000FF01000071
:1041EC00FD8A00081A8B00080C8B0008138B000842
:1041FC0037B5052504002A0000216846FEF74EFC61
:10420C002000FEF780FCFA22010052002000FFF78C
:10421C0083FE200002F03FFD29000300044A68469B
:10422C00FCF7F5FB642204216846FFF775FE37BDE9
:10423C004B8B000870B5AAB001AC2200FA26144BC7
:10424C00B60023CB23C223CB23C223CB23C20434FB
:10425C00231F1D68002D02D128002AB070BD8022BA
:10426C0000210AA8FEF71AFC2800FFF7C1FF322034
:10427C0002F00DFD32007F210AA8FFF71BFE0AA9F0
:10428C00044802F00AFF322002F001FDDFE7C046CD
:10429C00207C0008258B000880B50F4F1F22BD44E1
:1042AC000E496846FEF7F1FB80220021920008A817
:1042BC00FEF7F4FB6846FFF79BFFFA2208499200D1
:1042CC0008A8FFF7F7FD08A9064802F0E6FE002053
:1042DC0088239B009D4480BDE0FDFFFF2C8B0008D4
:1042EC00FF010000298B000810B5104C206802F06B
:1042FC00E3FC606802F0E0FC0021206802F0F7FCAF
:10430C00322002F0C4FC0121206802F0F0FC0121F3
:10431C00606802F0ECFC322002F0B9FC002160680D
:10432C0002F0E5FC00F0B0F810BDC0468C4800204F
:10433C0010B5094802F0C0FC002802D0074802F072
:10434C00ACFE074802F0B8FC041E02D0054802F08F
:10435C00A4FE200010BDC046D0480020428C0008AE
:10436C00E04800205B8C000870B501260F4C104D06
:10437C0021782800314002F0BAFC217831413140DB
:10438C000C4E300002F0B3FC608802F05FF90021A3
:10439C00280002F0ACFC0021300002F0A8FCA3883D
:1043AC00012B02D0608802F051F970BD0806002084
:1043BC00E0480020D048002010B50024054B210017
:1043CC0005481C7002F093FC2100044802F08FFC9D
:1043DC0010BDC0460F060020E0480020D048002049
:1043EC0070B506000D001400FFF7E6FF034B044800
:1043FC001E705D809C8002F06BF970BD0806002079
:10440C00385F0020F8B5FFF793FF002803D0184859
:10441C0002F043FEF8BD174CFA25200002F058F9C3
:10442C00AD00A368042B16D91348012702F035FE02
:10443C007F423900114802F06DF901230024104E1F
:10444C00104D3370AB88A3420DD1FFF78DFF33783D
:10445C00002BEED0F9E7280002F0F8F8E1E7FFF7BF
:10446C0083FF0134A4B2AB88A342F8D8E1E7C0467D
:10447C00728C0008785E00208F8C0008385F00205A
:10448C000F06002008060020F0B591B01C22002178
:10449C0009A8FEF703FB0822002106A8FEF7FEFA86
:1044AC008022284BD202D96902271143D961D969DC
:1044BC000324114002910299596904261143596150
:1044CC005B69214D1A400192019B802303A9DB00FB
:1044DC002800039305940497089602F0EAFD8023C4
:1044EC00059400241B0103A9280003930694079448
:1044FC000497089602F0DDFDE1235B0209930C237F
:10450C000A940B940C940E940F94104C09A920004F
:10451C000D9300F0F7FAA3680D4A1340A3608023B3
:10452C00A2685B011343A36063680A4A13402A2202
:10453C006360A3689343A360012322681343236041
:10454C0011B0F0BD001002400004004800480040CB
:10455C00FFFBFFFFFFB7FFFF0B6810B501330B60CC
:10456C00014B1B68984710BDF0480020F0B587B090
:10457C0003930C9B0700029114000193002B01DCA8
:10458C000123019320230593039B012B01D12F338E
:10459C0005930A230093002301261F4D0493049BCB
:1045AC00002B01D1A54226D2691C2000FBF78AFD05
:1045BC0002993030B847012301360493009B691CE3
:1045CC00013B20000093FBF7B9FD28000C000A21E9
:1045DC00FBF778FD009B0500012BE0D12000029930
:1045EC003030B847039B032B03D1019B9C1B002C41
:1045FC000DDC07B0F0BD019B009A9342DEDB039B00
:10460C00022BDBD802990598B8470136D6E70299F8
:10461C002020B847013CEAE7FFC99A3B014B1860E0
:10462C007047C046F048002007B50B00002102007F
:10463C000191024801A902F0EAFB07BD654500089B
:10464C00EFF3108372B6002B02D162B6BFF36F8FFB
:10465C00024B034A00201A607047C046F448002001
:10466C0000127A000649074A10B5521A0648FEF79E
:10467C000CFA0321054A13680B43136010BDC046A6
:10468C0000000008BC0000080000002000000140F1
:10469C0010B503240A4A1368A3430343136004228E
:1046AC00084B186902431A61012905D130BF042156
:1046BC001A698A431A6110BD40BF20BF20BFF6E7BC
:1046CC000070004000ED00E00223054A11680B4326
:1046DC0013600423034A11690B43136130BF704705
:1046EC000070004000ED00E0034B044A5B681B06C1
:1046FC001B0FD35CD840704700100240A48C0008FC
:10470C00034B044A5B685B055B0FD35CD840704776
:10471C0000100240B48C0008C0220D4B52025868A5
:10472C0070B510400B4A0F258018421E90410A4A62
:10473C00D96A40421040094A2940801801315C680E
:10474C00FBF7C0FCA40C2C400234604370BDC04687
:10475C00001002400080FEFF00A69DFD006CDC02F4
:10476C00094B10B558680C231840082808D00C3891
:10477C0043425841054B40421840054BC01810BDF0
:10478C00FFF7CAFFFBE7C04600100240005A620266
:10479C0000127A0010B5031E12D1244A0333106B99
:1047AC000340022B06D0032B37D0012B1BD1FFF774
:1047BC00D7FF10BD106A1840FBD080200002F8E72C
:1047CC00102817D1C021194A8902136B1940802374
:1047DC005B050B4316498B4225D016498B421CD0E6
:1047EC00154A9342E3D0FFF7BBFFFFF77DFFFFF7BE
:1047FC0087FFDEE70020122BDBD1C0210B4A090317
:10480C00136B194090235B050B430C498B420AD068
:10481C000B498B4201D00B4AE3E702231068184086
:10482C00C7D00948C5E7106A0223C4E7001002404C
:10483C00000002100000031000000110000008121C
:10484C0000000C120000041200127A004023F0B594
:10485C001500826885B004001A4201D100232B6038
:10486C00CA236362773B63622B682E7C0293EB68EE
:10487C00002B69D1E3693B4A3B4F1340E361E36989
:10488C0000291CD01F4036063E43E661029AAF79E0
:10489C00E36917432A79120417436A791202174302
:1048AC00324A13401F43E761E369314A0120134048
:1048BC00AA681343E361FF23636205B0F0BD0A21CC
:1048CC0030000093FBF7FEFB0A210301300001933B
:1048DC00FBF734FC019B1943009B09061F400F4357
:1048EC00E7612B79AE7900936B790A210193E36927
:1048FC0030000393FBF7E6FB0A2107013000FBF7BE
:10490C001DFC1A4B3943039FC9B21F40029B0098F0
:10491C001F430F430A21FBF7D5FB0A210601009820
:10492C00FBF70CFC01980E430A21FBF7CBFBF6B20C
:10493C00360437430A2106010198FBF7FFFB0E43AF
:10494C00F6B236023743AEE78023E269DB05134348
:10495C00E361E369074A360613401E43E66100290A
:10496C00BFD093E7FFFFFFBFFFFFFFC0808080FF3A
:10497C007F7F7F7FFFFFFFF0FA23F7B59B0001934A
:10498C00C36801225B060ED40123802516005B420E
:10499C00C360C3680C4C9B0913406D02019900293C
:1049AC0001D0012B01D11000FEBD23682B4202D097
:1049BC00019B013B0193C36801999B094F1EB941AF
:1049CC00494233400A40E9E710E000E0CA2370B5E1
:1049DC004362773B436204000D00FFF7CDFF0028D4
:1049EC0016D04022A3680C4993432A680120134334
:1049FC00A3602369AA68DB0BDB03134323612269E1
:104A0C006B680A401B041343236181235B42E36000
:104A1C00FF23636270BDC046FFFF80FFFA23F7B52A
:104A2C0080219B000193C36802001940A1235B42C3
:104A3C000B43C360C3680120802506005B091C4C36
:104A4C0003406D020199002902D1002811D1FEBD4D
:104A5C00002BFAD023682B4202D0019B013B01931F
:104A6C00D36801995B094F1EB94149423340084054
:104A7C00E8E7FA23012480269B000193D3680C4DB0
:104A8C005B092340760201990029E0D0012BDED08E
:104A9C002B68334202D0019B013B0193D3680199EF
:104AAC005B094F1EB941494223400840EBE7C04621
:104ABC0010E000E0CA2310B54362773B4362040068
:104ACC00FFF75AFF002814D0002307210A4A23605D
:104ADC0062610A4A20006260A2680A40A260084A29
:104AEC002261E361E362E3636364E3602364FFF7E1
:104AFC0095FFFF23636210BDFFFF00000121000042
:104B0C00FF007F0030B503680400012085B00D0064
:104B1C00184002D0002005B030BD4B68C96822682F
:104B2C000B4329690B43A9690B4327490A401343DB
:104B3C0023606368254A1340AA6813436360A36823
:104B4C00234A13406A691343A360224B9C4218D139
:104B5C00FFF720FE0028DDD029680029DAD080225A
:104B6C00AD694B081202954229D14000C018FBF7E1
:104B7C00A9FA194B03400007400F1843E0600120CD
:104B8C00C9E7164B10209C42E2D0154B9C4201D138
:104B9C001220DDE7134B9C4204D101A802F0E5FA88
:104BAC000398D7E7104B9C42F7D0104B9C42F4D0A3
:104BBC000F4B9C42F1D00F4B9C42ABD1EDE7C01890
:104BCC00FBF780FA80B2D9E7F369FFEFFFCFFFFF65
:104BDC00FFFCFFFF00380140F0FF000000440040E4
:104BEC0000480040004C00400050004000140140C0
:104BFC0000180140001C0140014B18607047C04672
:104C0C00F448002070B50400074D0A2804D1286828
:104C1C000D2143685B6898472868E1B243685B687C
:104C2C009847200070BDC0467003002010B5044C9E
:104C3C00200000F005FC2000FFF7F0FC10BDC04682
:104C4C00114C000810B5044801F080F9034B1860B2
:104C5C00FFF7ECFF002010BDBC8C00087003002097
:104C6C00F8B504000E0001279568B44200DBF8BDCE
:104C7C003B00A34007494A691A40934208D1E2001D
:104C8C004B61AB58002B03D0291D89582000984745
:104C9C000134EAE70004014010B51F2805DC0123AC
:104CAC0083400A4A11680B431360031F0B2B09D96D
:104CBC00831E012B08D9012802D8052000F0A8FA80
:104CCC00002010BD0720F9E70620F7E7000401409B
:104CDC00012310B5194206D01F2804DC8340074A73
:104CEC009468234393608B0707D51F2805DC0123A9
:104CFC008340024AD1680B43D36010BD00040140CD
:104D0C000549C000896809180868002801D10CC140
:104D1C00704710204042FBE7385C00201FB5086844
:104D2C0002280ED0042817D000281FD1114A4C6835
:104D3C00516921435161536923400193019B04B094
:104D4C0010BD0C4A4868D1690143D161D369034055
:104D5C000293029B0020F2E7064A486891690143DE
:104D6C009161936903400393039BF3E786204042D0
:104D7C00E5E7C046001002400868022809D0042864
:104D8C000ED0002812D10B4A496853698B435361EA
:104D9C007047084A4968D3698B43D3610020F7E711
:104DAC00044A496893698B439361F7E78620404234
:104DBC00EEE7C046001002400B68022B01D9042B11
:104DCC0004D10020034B1B681360704786204042BF
:104DDC00FBE7C046F448002070B500F041F8022310
:104DEC00184C22681A4206D1012221680A4322601B
:104DFC0022681A42FCD003226368934363606368A1
:104E0C00ED32934363600C2365681D40FCD10E4B5F
:104E1C000E481B78D840FFF7EFFE012163680C4A5F
:104E2C0013400C4A636013688B43136023680A4A6F
:104E3C001340236002F0CCF92368084A2800134081
:104E4C00236070BD00100240A48C000800127A0090
:104E5C00FFF8FFFF00200240FFFFFEFFFFFFFFFEF9
:104E6C000120054A82B09169014391619369034025
:104E7C000193019B02B070470010024073B504000F
:104E8C000D0010002609002A02D1104801F05EF82E
:104E9C00002300930E4BB600F3580193013302D15B
:104EAC000520404211E0436869461B68984700287A
:104EBC00F6D190220F212B002011D20580020B403D
:104ECC00801821402A0002F071FA76BDCE8C0008C1
:104EDC00A87F0008F8B5040008480E0001F036F869
:104EEC0000250700B54200D1F8BD207861683A0072
:104EFC00FFF7C4FF01350834F4E7C046CE8C000838
:104F0C00104A70B511689368106880220E4C5202DA
:104F1C001B0225681B0A11401400002900D029002F
:104F2C000A4A166871181160082B06D9002620420F
:104F3C0000D02E0011688919116010684019C01A30
:104F4C0070BDC04610E000E07C040020800400200E
:104F5C00FA210E4B0E4A70B50E4C10681A68256873
:104F6C00101849011860401BFBF7ACF8FA235B01E1
:104F7C0043435B192360084B1A68084B1A600022E4
:104F8C001A6001F0F7FC00F097F870BD780400206F
:104F9C007C0400207404002010E000E08004002059
:104FAC000020094A136A1B021B0A1362074A084BAA
:104FBC001A60084B1860084B5A60072298601968F1
:104FCC000A431A607047C04600ED00E03F1F000026
:104FDC007C0400208004002010E000E0F7B5234E94
:104FEC00234F002909D0431C07D101223368934376
:104FFC003360FF231B063B60F7BD832301381B0185
:10500C0098422DDC00282DDDFA2464014443EFF393
:10501C00108372B60193FFF773FFFA21154B490108
:10502C001A6885181D60144B1B680093E01A134B0B
:10503C00C0184019FBF746F8FA235B014343009A6A
:10504C00551B5D1900230E4A3D60013D13607560D0
:10505C00B360019B002BCFD162B6BFF36F8FCBE750
:10506C001800D1E78024E400D1E7C04610E000E04E
:10507C007C04002078040020740400203F1F0000F2
:10508C008004002010B5EFF3108472B6FFF738FFE0
:10509C00074B084A1B6812689B1A1818002C02D17F
:1050AC0062B6BFF36F8FFA214901FBF70BF810BD05
:1050BC00780400207404002004488168006A884247
:1050CC0002D00349034A0A6070470000CC05002057
:1050DC0004ED00E000000010F0B5C024002203260F
:1050EC00FF25A40010002F003040C000874093081B
:1050FC0004499B005B1819590132B94319511F2AF5
:10510C00F0D1F0BD00E100E0084A09499368096854
:10511C00D8651966802307495B05486803434B60D3
:10512C0062B6BFF36F8F9368186E7047CC05002082
:10513C008481000800ED00E072B613498A681348B8
:10514C001044EFF3098CF0C043464C4655465E467E
:10515C006746F8C00E4F0F4E0A6A8A603E60D06DEB
:10516C000023D365002800D162B6084C101910300A
:10517C00F8C89846A146AA46B346BC462438F0C89F
:10518C008CF3098870470000CC0500202800000033
:10519C0004ED00E00000000809487146014202D00D
:1051AC00EFF3098001D1EFF30880816902390978A6
:1051BC00022900D080E701B502F010F801BD000013
:1051CC00040000000D4B10B55B680400DA05D20D2D
:1051DC00032A07D10A4801F060FF2100002000F0EB
:1051EC008BF810BDF82040000649034200D0064958
:1051FC00103A064801F051FFEFE7C04600ED00E021
:10520C000F8D0008E18C0008F68C0008278D000833
:10521C00030605D41F2318401E3B8340014A13602C
:10522C007047C04600E100E030B5FF2503242A009A
:10523C0043B2C0B20440E400A24089012940D243E9
:10524C00A140002B0ADBC0240A489B089B001B18BA
:10525C00A400185902401143195130BD0F231840B6
:10526C000838054B80088000C018C3691A401143E8
:10527C00C161F2E700E100E000ED00E070B51E0056
:10528C008C18089B07990422050002F05DFB220094
:10529C00072101200023203A8A430949EB6481430A
:1052AC002B6591610499166051600599916006997E
:1052BC00D16080214904D161AA64EB6570BDC04600
:1052CC00EB6D0008014910220A60704710ED00E0F8
:1052DC0062B630BF7047C04662B60648714601429E
:1052EC0002D0EFF3098001D1EFF3088001B5FFF78D
:1052FC0069FF01BD0400000070B504000D00052815
:10530C0019D8FAF7D5FE0318181214160C4801F028
:10531C00C4FE01F0D7F9AA6901000A4801F0BDFEEC
:10532C002900200000F018F870BD0748EFE7074887
:10533C00EDE70748EBE72100064801F0AEFEE8E791
:10534C003B8D0008D98D00085B8D0008818D00080D
:10535C009B8D0008B68D000810B505280CD002F006
:10536C00C7FA00280BD002F0C3FA0B49002800D171
:10537C000A490B4801F091FEFFF7AAFFFCE701F088
:10538C00EFF90028EFD1074C0748A16801F085FE22
:10539C00A06800F00BF810BD158E0008198E0008DF
:1053AC002A8E0008CC0500204A8E000870B5050036
:1053BC00EFF3108472B602F0A6FA0A4B9B68AB426C
:1053CC000BD1094B5A68D20502D12000FFF79CFE85
:1053DC008022596852050A435A60200002F00FFAE5
:1053EC0070BDC046CC05002000ED00E001B5EFF328
:1053FC0005800549401AC0000449014409C9984771
:10540C0009BC9E460248004710000000487A00087C
:10541C00C550000872B607480749401880F3098840
:10542C00EFF314800221084380F31488BFF36F8FCD
:10543C0001F0DAFE181E00200008000030BFFDE766
:10544C00014B18607047C0460849002070B5060033
:10545C000D000024AC4208DA054B1B689847305508
:10546C0001340A2801D00D28F4D1200070BDC046AB
:10547C0004490020F8B506000D000024AC4201DB05
:10548C002800F8BD335D054F0A2B02D10D203B6877
:10549C009847305D3B6898470134EFE70849002096
:1054AC0010B505210148FFF7E5FFFEE76F8E0008F8
:1054BC0010B5074C07492368C2180748091A8A42D5
:1054CC0002D21818226010BD01204042FBE7C046F2
:1054DC008404002000800020E45F002010B5034805
:1054EC000821FFF7F7FC002010BDC046D47F000850
:1054FC00034A0449136A00200B4013627047C046EC
:10550C0000100240FF7FFFFF024BD868C005C00FA0
:10551C007047C0460028004070B58AB004000C22C9
:10552C00002107A8FDF7BAFA0F203C4D3C4A2B6826
:10553C001A40110D160C0640090131437F2609044F
:10554C00334019430F3E130A120A334002401A43E8
:10555C00120211436A68FC25E026324BAD031A4057
:10556C0013042B40150D2D012B43150C05402B431B
:10557C00F604D502354010262B43150A120A354085
:10558C0002402A430A2512021343DEB232096A434F
:10559C0006409219D2B21E0A6432F6B20692320951
:1055AC006A4306409219013A1B0C0592DAB21309B0
:1055BC006B4302409A1804920A0C13096B43024085
:1055CC009B1803930B0ADBB21A096A430340D318E6
:1055DC00C9B202930B096B4301405B1801A80193FC
:1055EC00FBF728F82368104A9B685C6801235B4230
:1055FC00801859410D4A0023FDF702F902000B00F7
:10560C0020000021FDF7FCF8084A0023FAF726FEDB
:10561C00002901D0012040420AB070BD0028004092
:10562C007F7F3F003FFFFF0080BC92C740420F00CE
:10563C00F8B5856804002E68FFF76EFF114B020069
:10564C00D968C90519D5CA21FF2059627739596221
:10565C00DF680D4907403943D96099680B4F3940D1
:10566C00996099680A4F394099605862002E04D0AD
:10567C000021AB6829602000B0478022054B9202C4
:10568C005A61F8BD002800407FFEFFFFFFEFFFFFCF
:10569C00FFFEFFFF0004014070B504002E4800F02F
:1056AC0055FC236800229D68A36829001A60436892
:1056BC000C311B6898478023284A5B0011680B4308
:1056CC0013608022264B5202196A0A431A621A6A24
:1056DC0024490A401A620122596A0A435A62022278
:1056EC00596A1142FCD01A6A1F49204C1140802281
:1056FC0092000A431A628022196A12020A431A6241
:10570C002000FFF7D7F9012802D00520404270BDD8
:10571C00290020001431FFF759F90128F5D1CA23CB
:10572C006362773B6362A268333B1343A360FF233E
:10573C00802263620E4B920219680130114319608A
:10574C0099680A439A6000221100FFF76DFD022050
:10575C00FFF75EFD0020DAE7CE8C000800700040F9
:10576C0000100240FFFFFEFFFFFCFFFF002800407F
:10577C00000401408023034A1B02116A00200B43E2
:10578C001362704700100240CA22FF210B4B10B568
:10579C005A62773A5A62DC68094A0C402243DA6052
:1057AC009A68084C22409A609A68074C22409A608A
:1057BC00596283680020186010BDC0460028004064
:1057CC007FFEFFFFFFEFFFFFFFFEFFFFF0B51500B1
:1057DC00846893B00600FFF79FFE23686968002B6E
:1057EC0052D12B682360AB68A3602B7B2373002BF7
:1057FC0000D109180025274A002308002900FCF7CE
:10580C00FFFF3368CA279B68FF265A682B00FAF7FC
:10581C0025FD204A0023FAF721FD0290039109A9E6
:10582C0002A8FAF771FD0B9B04AA13710A9B1A4C80
:10583C0053710193099B049593710C9B95601374A0
:10584C005323D56067626362A368144920000B4040
:10585C00A36029006662FEF7F9FF012817D15323D4
:10586C0067626362A268AD331343A360E2680C4BBA
:10587C0032401343E36080232800A2685B0113438A
:10588C00A360666213B0F0BD10204042FAE7052019
:10589C00FBE7C04640420F0000280040FFFEFFFF20
:1058AC007FFEFFFF036810B506489C6800F04EFBB6
:1058BC002100436808311B689847002801D0052057
:1058CC00404210BDCE8C000810B50F291CDC104BCB
:1058DC000B4004D50422013B5242134301330324F1
:1058EC00CA172240521892109B041343DAB20C349C
:1058FC001B0C9C4098400749920052189168A14398
:10590C0001430020916010BD16204042FBE7C046C9
:10591C000300008000000140F0B51D00036885B055
:10592C009E6880232B40070001920B4304D08624F1
:10593C006442200005B0F0BD03A9280001F015FD5C
:10594C00041EF6D10300039A0199306801F02EFD74
:10595C00041E21D1AB07ECD53B00114A71680198AC
:10596C00FFF7CEF9002819D101997068FFF7ACFF49
:10597C00AB06DCD503216B0604D401310D40694222
:10598C00694101310198FFF7A3F90198FFF784F9F8
:10599C000028CED05824CBE70524C9E71024C7E74C
:1059AC006D720008102283689B68996911420CD0B3
:1059BC00D9690A43DA615A68D20103D55A680B498E
:1059CC000A405A60052040420EE0802299699200FC
:1059DC001142EDD180229869D2001040E8D180228A
:1059EC00996952001142E3D17047C046FFFFFFFE98
:1059FC00F7B5050040278026036801919B689C68D9
:105A0C00A3693B4202D1A369334215D0019B00200C
:105A1C009B0710D580236268DB011343636020234E
:105A2C00A2691A42FCD00020E2691343E361636867
:105A3C00054A13406360FEBD2868FFF7B3FF0028DA
:105A4C00DED005204042F6E7FFFFFFFEF0B504680C
:105A5C004D68A4682D04A468234E6768FF0104D523
:105A6C0063681E4035436560F0BD80681F4F006958
:105A7C00C0072FD560680740802000013843606064
:105A8C006068800A8002034363600B7A9B0727D40B
:105A9C00002A25D013785B0722D4802362685B042C
:105AAC00134363606368124A134063606368114A6E
:105ABC001340059A1343636063681E40012335430A
:105ACC006560226813432360802362689B01134343
