:020000040800F2
:1000000000310020CD580008BB910008715700084E
:1000100071570008715700087157000871570008A0
:10002000715700087157000871570008F153000814
:10003000715700087157000899530008BD51000816
:10004000A5580008A5580008A5580008A55800089C
:10005000A5580008A5580008A5580008A55800088C
:10006000A5580008A5580008A5580008A55800087C
:10007000A5580008A5580008A5580008A55800086C
:10008000A5580008A5580008A5580008A55800085C
:10009000A5580008A5580008A5580008A55800084C
:1000A000A5580008A5580008A5580008A55800083C
:1000B000A5580008A5580008A5580008A55800082C
:1000C000A5580008A5580008A5580008A55800081C
:1000D000A5580008A5580008A5580008A55800080C
:1000E000A5580008A5580008A5580008A5580008FC
:1000F000A5580008A5580008A5580008A5580008EC
:10010000A5580008A5580008A5580008A5580008DB
:10011000A5580008A5580008A5580008A5580008CB
:10012000A5580008A5580008A5580008A5580008BB
:10013000A5580008A5580008A5580008A5580008AB
:10014000A5580008A5580008A5580008A55800089B
:10015000A5580008A5580008A5580008A55800088B
:10016000A5580008A5580008A5580008A55800087B
:10017000A5580008A5580008A5580008A55800086B
:10018000A5580008A5580008A5580008A55800085B
:10019000A5580008A5580008A5580008A55800084B
:1001A000A5580008A5580008A5580008A55800083B
:1001B000A5580008A5580008A5580008A55800082B
:1001C000A5580008A5580008A5580008A55800081B
:0801D000A5580008A55800081D
:1001D80081F0004102E000BF83F0004330B54FEAF0
:1001E80041044FEA430594EA050F08BF90EA020F5D
:1001F8001FBF54EA000C55EA020C7FEA645C7FEAF0
:10020800655C00F0E2804FEA5454D4EB5555B8BF12
:100218006D420CDD2C4480EA020281EA030382EA83
:10022800000083EA010180EA020281EA0303362D15
:1002380088BF30BD11F0004F4FEA01314FF4801CE8
:100248004CEA113102D0404261EB410113F0004FFA
:100258004FEA03334CEA133302D0524263EB4303B1
:1002680094EA050F00F0A780A4F10104D5F1200E4F
:100278000DDB02FA0EFC22FA05F2801841F10001AA
:1002880003FA0EF2801843FA05F359410EE0A5F17E
:1002980020050EF1200E012A03FA0EFC28BF4CF0AF
:1002A800020C43FA05F3C01851EBE37101F0004565
:1002B80007D54FF0000EDCF1000C7EEB00006EEB72
:1002C8000101B1F5801F1BD3B1F5001F0CD34908FC
:1002D8005FEA30004FEA3C0C04F101044FEA445253
:1002E80012F5800F80F09A80BCF1004F08BF5FEADA
:1002F800500C50F1000041EB045141EA050130BDBA
:100308005FEA4C0C404141EB010111F4801FA4F15C
:100318000104E9D191F0000F04BF01460020B1FAB1
:1003280081F308BF2033A3F10B03B3F120020CDAE9
:100338000C3208DD02F1140CC2F10C0201FA0CF0C7
:1003480021FA02F10CE002F11402D8BFC2F1200C2C
:1003580001FA02F120FA0CFCDCBF41EA0C019040E2
:10036800E41AA2BF01EB0451294330BD6FEA04042B
:100378001F3C1CDA0C340EDC04F11404C4F1200216
:1003880020FA04F001FA02F340EA030021FA04F328
:1003980045EA030130BDC4F10C04C4F1200220FA7F
:1003A80002F001FA04F340EA0300294630BD21FABD
:1003B80004F0294630BD94F0000F83F4801306BF83
:1003C80081F480110134013D4EE77FEA645C18BF77
:1003D8007FEA655C29D094EA050F08BF90EA020F0E
:1003E80005D054EA000C04BF1946104630BD91EA06
:1003F800030F1EBF0021002030BD5FEA545C05D109
:100408004000494128BF41F0004130BD14F5800447
:100418003CBF01F5801130BD01F0004545F0FE41BB
:1004280041F470014FF0000030BD7FEA645C1ABFF0
:10043800194610467FEA655C1CBF0B46024650EA27
:10044800013406BF52EA033591EA030F41F4002153
:1004580030BD00BF90F0000F04BF0021704730B5D9
:100468004FF4806404F132044FF000054FF00001AE
:1004780050E700BF90F0000F04BF0021704730B56F
:100488004FF4806404F1320410F0004548BF404244
:100498004FF000013EE700BF42004FEAE2014FEA99
:1004A80031014FEA02701FBF12F07F4393F07F4F74
:1004B80081F06051704732F07F4208BF704793F077
:1004C8007F4F04BF41F40021704730B54FF460748A
:1004D80001F0004521F000411CE700BF50EA01028D
:1004E80008BF704730B54FF000050AE050EA010236
:1004F80008BF704730B511F0004502D5404261EBA6
:1005080041014FF4806404F132045FEA915C3FF4E6
:10051800D8AE4FF003025FEADC0C18BF03325FEA83
:10052800DC0C18BF033202EBDC02C2F1200300FA34
:1005380003FC20FA02F001FA03FE40EA0E0021FA59
:1005480002F11444BDE600BF70B54FF0FF0C4CF447
:10055800E06C1CEA11541DBF1CEA135594EA0C0FF9
:1005680095EA0C0F00F0DEF82C4481EA030621EA34
:100578004C5123EA4C5350EA013518BF52EA03356F
:1005880041F4801143F4801338D0A0FB02CE4FF021
:100598000005E1FB02E506F00042E0FB03E54FF051
:1005A8000006E1FB03569CF0000F18BF4EF0010E49
:1005B800A4F1FF04B6F5007F64F5407404D25FEA45
:1005C8004E0E6D4146EB060642EAC62141EA5551F8
:1005D8004FEAC52040EA5E504FEACE2EB4F1FD0C3A
:1005E80088BFBCF5E06F1ED8BEF1004F08BF5FEAB8
:1005F800500E50F1000041EB045170BD06F000466A
:1006080046EA010140EA020081EA0301B4EB5C0416
:10061800C2BFD4EB0C0541EA045170BD41F480110E
:100628004FF0000E013C00F3AB8014F1360FDEBF33
:10063800002001F0004170BDC4F10004203C35DA0F
:100648000C341BDC04F11404C4F1200500FA05F392
:1006580020FA04F001FA05F240EA020001F0004233
:1006680021F0004110EBD37021FA04F642EB0601A9
:100678005EEA430E08BF20EAD37070BDC4F10C04D3
:10068800C4F1200500FA04F320FA05F001FA04F297
:1006980040EA020001F0004110EBD37041F1000183
:1006A8005EEA430E08BF20EAD37070BDC4F120058E
:1006B80000FA05F24EEA020E20FA04F301FA05F2F6
:1006C80043EA020321FA04F001F0004121FA04F29E
:1006D80020EA020000EBD3705EEA430E08BF20EA6E
:1006E800D37070BD94F0000F0FD101F000464000A8
:1006F80041EB010111F4801F08BF013CF7D041EA2A
:10070800060195F0000F18BF704703F0004652002D
:1007180043EB030313F4801F08BF013DF7D043EAFE
:100728000603704794EA0C0F0CEA135518BF95EAB4
:100738000C0F0CD050EA410618BF52EA4306D1D13B
:1007480081EA030101F000414FF0000070BD50EA5A
:10075800410606BF1046194652EA430619D094EAE4
:100768000C0F02D150EA013613D195EA0C0F05D1CE
:1007780052EA03361CBF104619460AD181EA030122
:1007880001F0004141F0FE4141F470014FF00000DA
:1007980070BD41F0FE4141F4780170BD70B54FF075
:1007A800FF0C4CF4E06C1CEA11541DBF1CEA1355F5
:1007B80094EA0C0F95EA0C0F00F0A7F8A4EB0504D7
:1007C80081EA030E52EA03354FEA013100F08880CE
:1007D8004FEA03334FF0805545EA131343EA126397
:1007E8004FEA022245EA111545EA10654FEA00264C
:1007F8000EF000419D4208BF964244F1FD0404F505
:10080800407402D25B084FEA3202B61A65EB030560
:100818005B084FEA32024FF480104FF4002CB6EB1D
:10082800020E75EB030E22BFB61A754640EA0C009D
:100838005B084FEA3202B6EB020E75EB030E22BFDD
:10084800B61A754640EA5C005B084FEA3202B6EB1E
:10085800020E75EB030E22BFB61A754640EA9C00DD
:100868005B084FEA3202B6EB020E75EB030E22BFAD
:10087800B61A754640EADC0055EA060E18D04FEA6B
:10088800051545EA16754FEA06164FEAC30343EA0B
:1008980052734FEAC2025FEA1C1CC0D111F4801FD8
:1008A8000BD141EA00014FF000004FF0004CB6E7D1
:1008B80011F4801F04BF01430020B4F1FD0C88BF70
:1008C800BCF5E06F3FF6AFAEB5EB030C04BFB6EB7B
:1008D800020C5FEA500C50F1000041EB045170BD6E
:1008E8000EF0004E4EEA113114EB5C04C2BFD4EB9B
:1008F8000C0541EA045170BD41F480114FF0000E1F
:10090800013C90E645EA060E8DE60CEA135594EA9A
:100918000C0F08BF95EA0C0F3FF43BAF94EA0C0F9D
:100928000AD150EA01347FF434AF95EA0C0F7FF412
:1009380025AF104619462CE795EA0C0F06D152EA66
:1009480003353FF4FDAE1046194622E750EA41064A
:1009580018BF52EA43067FF4C5AE50EA41047FF45B
:100968000DAF52EA43057FF4EBAE12E780F000408A
:1009780002E000BF81F0004142001FBF5FEA41036F
:1009880092EA030F7FEA226C7FEA236C6AD04FEA6F
:100998001262D2EB1363C1BFD218414048404140B4
:1009A800B8BF5B42192B88BF704710F0004F40F466
:1009B800000020F07F4018BF404211F0004F41F482
:1009C800000121F07F4118BF494292EA030F3FD04E
:1009D800A2F1010241FA03FC10EB0C00C3F1200361
:1009E80001FA03F100F0004302D5494260EB4000F0
:1009F800B0F5000F13D3B0F1807F06D340084FEA5B
:100A0800310102F10102FE2A51D2B1F1004F40EB4F
:100A1800C25008BF20F0010040EA030070474900B7
:100A280040EB000010F4000FA2F10102EDD1B0FA82
:100A380080FCACF1080CB2EB0C0200FA0CF0AABF77
:100A480000EBC25052421843BCBFD0401843704715
:100A580092F0000F81F4000106BF80F4000001321B
:100A6800013BB5E74FEA41037FEA226C18BF7FEAF2
:100A7800236C21D092EA030F04D092F0000F08BF34
:100A88000846704790EA010F1CBF0020704712F01B
:100A98007F4F04D1400028BF40F00040704712F15A
:100AA80000723CBF00F50000704700F0004343F0BF
:100AB800FE4040F4000070477FEA226216BF0846F5
:100AC8007FEA23630146420206BF5FEA412390EAB8
:100AD800010F40F4800070474FF0000304E000BFAE
:100AE80010F0004348BF40425FEA000C08BF70475F
:100AF80043F0964301464FF000001CE050EA010223
:100B080008BF70474FF000030AE000BF50EA010237
:100B180008BF704711F0004302D5404261EB410124
:100B28005FEA010C02BF84460146002043F0B64349
:100B380008BFA3F18053A3F50003BCFA8CF2083A6E
:100B4800A3EBC25310DB01FA02FC634400FA02FC77
:100B5800C2F12002BCF1004F20FA02F243EB02007E
:100B680008BF20F00100704702F1200201FA02FCE0
:100B7800C2F1200250EA4C0021FA02F243EB0200D3
:100B880008BF20EADC7070474FF0FF0C1CEAD05217
:100B98001EBF1CEAD15392EA0C0F93EA0C0F6FD0D8
:100BA8001A4480EA010C400218BF5FEA41211ED0B6
:100BB8004FF0006343EA501043EA5111A0FB0131A2
:100BC8000CF00040B1F5000F3EBF490041EAD37177
:100BD8005B0040EA010062F17F02FD2A1DD8B3F1F3
:100BE800004F40EBC25008BF20F00100704790F062
:100BF800000F0CF0004C08BF49024CEA502040EAB4
:100C080051207F3AC2BFD2F1FF0340EAC250704779
:100C180040F400004FF00003013A5DDC12F1190FB7
:100C2800DCBF00F000407047C2F10002410021FA29
:100C380002F1C2F1200200FA02FC5FEA310040F141
:100C4800000053EA4C0308BF20EADC70704792F0BA
:100C5800000F00F0004C02BF400010F4000F013AF2
:100C6800F9D040EA0C0093F0000F01F0004C02BFED
:100C7800490011F4000F013BF9D041EA0C018FE75C
:100C88000CEAD15392EA0C0F18BF93EA0C0F0AD062
:100C980030F0004C18BF31F0004CD8D180EA010088
:100CA80000F00040704790F0000F17BF90F0004F21
:100CB800084691F0000F91F0004F14D092EA0C0F03
:100CC80001D142020FD193EA0C0F03D14B0218BF96
:100CD800084608D180EA010000F0004040F0FE40DC
:100CE80040F40000704740F0FE4040F44000704778
:100CF8004FF0FF0C1CEAD0521EBF1CEAD15392EAF7
:100D08000C0F93EA0C0F69D0A2EB030280EA010CE6
:100D180049024FEA402037D04FF0805343EA11117F
:100D280043EA10130CF000408B4238BF5B0042F1DD
:100D38007D024FF4000C8B4224BF5B1A40EA0C0082
:100D4800B3EB510F24BFA3EB510340EA5C00B3EBB4
:100D5800910F24BFA3EB910340EA9C00B3EBD10FA2
:100D680024BFA3EBD10340EADC001B0118BF5FEAF4
:100D78001C1CE0D1FD2A3FF650AF8B4240EBC2501D
:100D880008BF20F0010070470CF0004C4CEA5020DE
:100D98007F32C2BFD2F1FF0340EAC250704740F42D
:100DA80000004FF00003013A37E792F0000F00F01F
:100DB800004C02BF400010F4000F013AF9D040EA9D
:100DC8000C0093F0000F01F0004C02BF490011F431
:100DD800000F013BF9D041EA0C0195E70CEAD15329
:100DE80092EA0C0F08D142027FF47DAF93EA0C0F10
:100DF8007FF470AF084676E793EA0C0F04D14B02F4
:100E08003FF44CAF08466EE730F0004C18BF31F0A5
:100E1800004CCAD130F000427FF45CAF31F000439F
:100E28007FF43CAF5FE700BF4FF0FF3C06E000BF38
:100E38004FF0010C02E000BF4FF0010C4DF804CD5B
:100E48004FEA40024FEA41037FEA226C18BF7FEA6B
:100E5800236C11D001B052EA530C18BF90EA010F6D
:100E680058BFB2EB030088BFC81738BF6FEAE170FC
:100E780018BF40F0010070477FEA226C02D15FEA98
:100E8800402C05D17FEA236CE4D15FEA412CE1D004
:100E98005DF8040B704700BF844608466146FFE7CB
:100EA8000FB5FFF7C9FF002848BF10F1000F0FBDAD
:100EB8004DF808EDFFF7F4FF0CBF012000205DF8A6
:100EC80008FB00BF4DF808EDFFF7EAFF34BF01202B
:100ED80000205DF808FB00BF4DF808EDFFF7E0FFC4
:100EE80094BF012000205DF808FB00BF4DF808ED15
:100EF800FFF7D2FF94BF012000205DF808FB00BF78
:100F08004DF808EDFFF7C8FF34BF012000205DF859
:100F180008FB00BF42000ED2B2F1FE4F0BD34FF0D8
:100F28009E03B3EB126209D44FEA002343F0004357
:100F380023FA02F070474FF00000704712F1610F7A
:100F480001D1420202D14FF0FF3070474FF000004C
:100F5800704700BF7BB972B90029BEBF00204FF0AF
:100F6800004106E008BF00281CBF6FF000414FF0A9
:100F7800FF3000F057B8ADF1080C6DE904CE002938
:100F880009DB002B1ADB00F04FF8DDF804E0DDE99F
:100F9800022304B07047404261EB4101002B1BDB88
:100FA80000F042F8DDF804E0DDE9022304B0404235
:100FB80061EB4101524263EB43037047524263EBDA
:100FC800430300F031F8DDF804E0DDE9022304B062
:100FD800404261EB41017047524263EB430300F02A
:100FE80023F8DDF804E0DDE9022304B0524263EBA4
:100FF8004303704753B94AB9002908BF00281CBFEA
:101008004FF0FF314FF0FF3000F00CB8ADF1080C95
:101018006DE904CE00F008F8DDF804E0DDE902230C
:1010280004B07047704700BF2DE9F04F099F15467F
:1010380004468E461E46002B40F0CC808A42B2FA07
:1010480082FC4CD9BCF1000F0BD0CCF1200801FA7E
:101058000CFE20FA08F802FA0CF548EA0E0E00FA1F
:101068000CF44FEA15491FFA85F8BEFBF9FA210C72
:1010780009FB1AE30AFB08FB41EA03439B452AD90B
:10108800EB180AF1FF3004D29B4502D9AAF10200FD
:101098002B44A3EB0B03A4B2B3FBF9F209FB123305
:1010A80002FB08F844EA0344A04516D92C1902F1BA
:1010B800FF3303D2A04501D9931E2C44A4EB0804A6
:1010C80043EA004027B124FA0CF400233C607B601B
:1010D8003146BDE8F08F5046DBE71346EEE702B92C
:1010E800FFDEBCF1000F2ED18B1A01264FEA154EF8
:1010F800AAB2B3FBFEF8210C0EFB183308FB02F969
:1011080041EA0343994561D9EB1808F1FF3004D24D
:10111800994502D9A8F102002B44A3EB0903A4B214
:10112800B3FBFEF10EFB11334A4344EA0344A242E7
:101138004ED92C1901F1FF3303D2A24201D98B1EDB
:101148002C44A41ABCE7CCF1200E02FA0CF521FAC3
:101158000EF901FA0CF320FA0EFE4EEA03034FEAE9
:10116800154800FA0CF4B9FBF8F11FFA85FE08FBE4
:101178001192180C01FB0EF640EA0242964221D960
:10118800AA1801F1FF3003D2964201D9881E2A44D9
:10119800921B9BB2B2FBF8F908FB192209FB0EFE61
:1011A80043EA02439E450FD9EB1809F1FF3604D2F2
:1011B8009E4502D9A9F102062B44A3EB0E0346EA89
:1011C800004693E70846E3E74E46F6E74046A4E7BD
:1011D8000B46B6E78B4205D90FB1C7E900010026D7
:1011E800304675E7B3FA83FCBCF1000F0FD18B4290
:1011F80001D3824209D8841A61EB030E0120002F23
:101208006AD0C7E9004E002662E76046F7E7CCF1EE
:10121800200E03FA0CF322FA0EF521FA0EF41D4300
:1012280001FA0CF320FA0EF10B434FEA154A00FAC3
:101238000CF6B4FBFAF91FFA85F80AFB19401C0CE6
:1012480009FB08F144EA0044A14202FA0CF23FD932
:101258002C1909F1FF3004D2A14202D9A9F10200E8
:101268002C44641A9BB2B4FBFAF90AFB194409FB33
:1012780008F843EA044188452CD9691809F1FF3375
:1012880004D2884502D9A9F10203294443EA00405F
:10129800A1EB0801A0FB02894945C2464C4602D38E
:1012A80006D1464504D2B8EB020A69EB05040138B9
:1012B80097B1B6EB0A0361EB040606FA0EFE23FAB1
:1012C8000CF34EEA030326FA0CF6C7E900369AE750
:1012D8004846C6E74B46D9E73E46F9E60000000017
:1012E8002DE9F0435A4F3D6895B004461646B84676
:1012F800002D00F09B802B46564A002107F056FA35
:10130800642006F08EFC3868436820219B68984763
:10131800514A05460021204607F048FA642006F0A5
:1013280080FC002D16DA4D3514D001F00DFE642036
:1013380006F077FC0523019333680093474A484B2E
:101348000021204607F032FA642006F06AFC01F01A
:1013580009FE67E0D8F80000436804AADB680321A7
:101368009847404A05460021204607F01FFA002DFD
:10137800DBDB28220DEB0200002108F013F80598AA
:10138800FFF778F830A3D3E90023FFF707FA0646FA
:1013980004980F46FFF76EF802460B46304639466A
:1013A800FEF71CFF064609980F46FFF763F826A3C9
:1013B800D3E90023FFF7F2F9804608988946FFF73A
:1013C80059F802460B4640464946FEF707FFCDE965
:1013D80002010798FFF74EF81BA3D3E90023FFF794
:1013E800DDF9804606988946FFF744F802460B4621
:1013F80040464946FEF7F2FE32463B46CDE900013B
:1014080019490AA804F022FF0AA807F068FF014654
:101418000AA806F016FB0AAB0090144A00212046E1
:1014280007F0C4F9002015B0BDE8F08301F08CFD89
:10143800642006F0F6FB0523019333680093074AFE
:10144800074B29467DE700BF0000000080842E413D
:101458003802002047B2000853B2000850AE000816
:101468000AB200085AB200085FB20008E0B20008E9
:1014780070B503298AB0064673D8002A41D0062AD7
:101488006FD15C681A68424BE517C3FB0245012C13
:1014980075F1000312DB3F483BA3D3E90023201872
:1014A8004FF0000145EB0101FFF754FD3A4B1B6873
:1014B800002482B253B96FF0150448E03748201869
:1014C80031A3D3E9002345F1FF31EDE7D9B28A42D0
:1014D80002D001345B08EDE7002C38DB3049314A93
:1014E800B568002380FB0101FFF734FDE4B2A88151
:1014F8003023009404222321304608F0F9FA0446E8
:1015080025E01B88002BD6D01546274A01350B2D20
:10151800D1D032F815109942F8D1B3681868202351
:101528008DF80F3000220DF10F0304938DF8182069
:1015380001230DF10E02CDE90723059302220723AB
:1015480004A98DF8243008F08FFA041E02DA204628
:101558000AB070BD9DF80E3019072A4604D4082D2C
:1015680005D16FF02204F2E70A2D08BF092203F023
:101578000F0343EA0212D2B22021B06808F0A5FA9C
:10158800BDE700BFAFF300803AA39500000000005C
:1015980040420F009DD14A0054AD0008632EB5FFAC
:1015A80074462B016400010034AE000813460A4655
:1015B8000146014800F020BB306F002013460A4660
:1015C8000146014800F086BB306F002013460A46EA
:1015D8000146014800F0A6BA306F002013460A46BB
:1015E8000146014800F04CBB306F00202DE9F04364
:1015F8000129C9B0064688461746364D62D1DFF83C
:10160800E090C82006F0B4F900224146D9F800005D
:1016180006F0B0F90446C82006F0AAF94246414649
:10162800D9F80000DFF8BC9006F0A4F904444FF4A0
:10163800FA7006F09DF942460021D9F8000006F03C
:1016480099F964B20444642006F092F90022114624
:10165800D9F8000006F08EF964B2044464B2ACB163
:1016680001F072FC642006F083F905234693291DD6
:101678003B6845934FF48A72684607F069FE2B6809
:10168800154A0021304607F091F812E001F05CFCA1
:10169800642006F06DF93B6845934FF48A72291D62
:1016A800684607F055FE2B680C4A2146304607F07D
:1016B8007DF8642006F05CF901F054FC002049B084
:1016C800BDE8F08301F040FC642006F051F90123E5
:1016D800CCE700BF306F002050AE00085AAE0008BB
:1016E800080000200C0000202DE9F0410129C8B0B5
:1016F80006461746274C46D1DFF8A4800A46D8F894
:101708000000002106F036F90546C82006F030F939
:1017180000221146D8F8000006F02CF905446DB2F5
:10172800ADB101F011FC642006F022F905234693BF
:10173800211D3B6845934FF48A72684607F008FEFE
:101748002368154A0021304607F030F812E001F00E
:10175800FBFB642006F00CF93B6845934FF48A7252
:10176800211D684607F0F4FD23680C4A29463046D7
:1017780007F01CF8642006F0FBF801F0F3FB0020EA
:1017880048B0BDE8F08101F0DFFB642006F0F0F816
:101798000123CCE7306F002050AE00085AAE000895
:1017A8000C00002043685B6C13B5044643B39847AC
:1017B80030B363685B6B83B12046984768B1636850
:1017C8009B6923B101220DF10701204698470022A9
:1017D8000DF10701104805F0A7F963685B6A7BB152
:1017E8002046984760B100220DF107010B4805F02B
:1017F800EDF938B10A4B986843681B6A03B19847FA
:1018080002B010BD63685B69002BF9D001220DF1AD
:10181800070120469847F3E778760020A076002055
:10182800306F002073B52E482E4C05F037F843680A
:101838002060002211461D680123A84728482A4D28
:1018480005F02CF8436828601E6801231A46002119
:10185800B047002201212868244E06F08BF8322078
:1018680006F086F801221146286806F083F801225E
:101878000021206806F07EF8322006F079F8002270
:101888001146206806F076F8194B0093194A1A4B4E
:101898001A491B4806F0E4F81A4806F066F94FF0B2
:1018A800FF31304605F09AFD00220121286806F034
:1018B80061F8322006F05CF801221146286806F02B
:1018C80059F801220021206806F054F8322006F069
:1018D8004FF800221146206806F04CF8DFE700BFF9
:1018E80061AE00080C000020080000201C760020D3
:1018F800AD17000878760020A07600200AAF00080F
:10190800386F0020306F002070B58CB004AC1668BA
:10191800054620220021204607F044FD40F6BB433F
:101928000022114900932046082304F08FFC01F09F
:101938000BFB642006F028F8204607F0D0FC01468F
:10194800204606F07EF8094B094A00960021CDE9A9
:101958000140284606F02AFF642006F015F801F039
:1019680001FB00200CB070BD1AAF00081AB50008C2
:1019780023AF0008F7B5104C104F0646002514F1A8
:10198800FF3445F1FF3554EA050302D1002003B0C6
:10199800F0BD01F0D9FA642005F0F6FF3A460021BF
:1019A8003046CDE9004506F001FF642005F0ECFF64
:1019B80001F0D8FAE3E700BF40420F0016AF000875
:1019C80037B51546044601F0BFFA642005F0DCFF80
:1019D8002B680B4A009300210A4B204606F0E6FECE
:1019E800642005F0D1FF01F0BDFA4FF47A7005F0DC
:1019F800CBFF012003F070F9002003B030BD00BF19
:101A08005AAE00081AB500081FB501F083FA12484B
:101A180004F044FF02238DF80C30002241F2883391
:101A2800CDE900230D4B0293436869469B68044641
:101A380098470B4805F0A6FC0A4805F0A3FC0A489D
:101A480005F0A0FC4FF47A6005F09EFF6368002162
:101A5800DB6820469847F5E711AF00088F79000842
:101A680004760020347600201C7600203138C0B27D
:101A780035289ABF014B185C00207047BBAF00089F
:101A88002DE9F04385B0002307460E4610460DF1B8
:101A98000601ADF8063005F093FF0546002838D159
:101AA800304607F01CFCBDF806200146304605F01C
:101AB800CDFF80BB06F1FF3807F1080918F8014F80
:101AC800E4B91649386807F011FC80B93046029429
:101AD8008DF80C4006F014F8114A0346052102A8B7
:101AE80004F09CFB02AE083716F8011B61B9002D03
:101AF80018BF0424204605B0BDE8F08321464846B7
:101B080005F0D5FF0544D9E7384605F0D0FF054470
:101B1800EAE70224EEE70324ECE700BF88B40008F4
:101B2800F1AF0008012A37B505460C4612D106F078
:101B380014F801F009FA05F0E0FF2B680C4A0021BF
:101B4800204606F033FE05F0D8FF01F00BFA00201E
:101B580003B030BD01F0F8F905F0CFFF0123009381
:101B6800044A2B680021204606F020FEEBE700BF60
:101B7800F8AF0008FEAF0008012A73B504460D4609
:101B880030D1069807F0ABFB06990246204605F0CF
:101B9800FBFF6668304607F0A2FB31460246204646
:101BA80005F0F2FF064660B101F0CEF905F0A5FF99
:101BB800042300930E4A23680021284606F0F6FD08
:101BC80009E001F0C1F905F098FF2368094A314698
:101BD800284606F0EBFD05F090FF01F0C3F9002060
:101BE80002B070BD01F0B0F905F087FF0123E0E70E
:101BF8001FB000082AB00008F0B5C3B002AC054613
:101C08000F464FF480720021204607F0CBFB214697
:101C1800284605F07FFF2E4605F114018022204654
:101C280007F096FB01F090F905F067FF009456F86D
:101C3800943B114A0021384606F0B8FD05F05DFFD7
:101C480001F090F931468022204607F081FB01F02F
:101C58007BF905F052FF284605F091FF2346074A15
:101C680000900021384606F0A1FD05F046FF01F07E
:101C780079F9002043B0F0BD16B00008E5B20008BD
:101C8800012A37B505460C4612D105F06EFF01F062
:101C98005BF905F032FF2B680C4A0021204606F05C
:101CA80085FD05F02AFF01F05DF9002003B030BD85
:101CB80001F04AF905F021FF01230093044A2B683B
:101CC8000021204606F072FDEBE700BF07B00008D0
:101CD8000DB00008032AF7B504460D4630D1D3E904
:101CE8000112FFF7CDFE0646C8B101F02DF905F047
:101CF80004FF23681C4A00960021284606F056FD7A
:101D080005F0FBFE01F02EF901F01EF905F0F5FED5
:101D18002368164A0021284606F048FD1CE067683B
:101D2800384607F0DCFA39460246204605F02CFF13
:101D38000028E9D001F008F905F0DFFE042304E0EB
:101D480001F002F905F0D9FE01230093064A236841
:101D58000021284606F02AFD05F0CFFE01F002F921
:101D6800002003B0F0BD00BF32B000083BB000084F
:101D780013460A4601460148FFF73EBF4870002057
:101D880013460A4601460148FFF7A4BF48700020E1
:101D980013460A4601460148FFF7C4BE48700020B2
:101DA80013460A4601460148FFF76ABF48700020FB
:101DB80037B5044601F0C8F8642005F0FFFE224A52
:101DC800224D0021204606F0F1FC642005F0F6FEC5
:101DD80001F0C8F801F0B8F8642005F0EFFE1C4BDC
:101DE800009300232A461946204606F0DFFC6420AB
:101DF80005F0E4FE01F0B6F801F0A6F8642005F05D
:101E0800DDFE144B00932A4601230021204606F0EC
:101E1800CDFC642005F0D2FE01F0A4F801F094F89E
:101E2800642005F0CBFE0C4B0C4A009300210223E2
:101E3800204606F0BBFC642005F0C0FE01F092F8D5
:101E4800002003B030BD00BF51B0000857B00008F3
:101E580060B0000866B000087AB0000870B00008EA
:101E680037B50D46044601F06FF8642005F0A6FE6C
:101E7800052301932B680093074B084A1B68002130
:101E8800204606F093FC642005F098FE03B0BDE8F8
:101E9800304001F067B800BF4870002050AE00081D
:101EA800F7B5164D064601212846174605F080FE6F
:101EB8000446A8B101F048F8642005F07FFE3B68AD
:101EC800009301942B680E4A0021304606F06EFC00
:101ED800642005F073FE01F045F8002003B0F0BD62
:101EE80001F032F8642005F069FE3B680093054A6A
:101EF8002B682146304606F059FCE9E74870002077
:101F080050AE00085AAE00082DE9F043032987B007
:101F18000646894615463F4F75D100210A22686852
:101F280007F056F900248DF811000DF11201A86888
:101F38000594ADF8124005F043FD38B101F004F8FE
:101F4800642005F03BFE022301930EE0BDF8122049
:101F580001210DF1110005F079FD78B100F0F4FFD1
:101F6800642005F02BFECDF804902B6800933B68A5
:101F7800294A0021304606F019FC3BE09DF8113053
:101F8800012B19D043B1022B1AD000F0DDFF6420D9
:101F980005F014FE0623D7E7204B05AA0821186888
:101FA80005F00EFE0130C4B274B100F0CDFF64201C
:101FB80005F004FE0523C7E705AA0921184BEEE73B
:101FC80005AA0F21174BEAE700F0BEFF642005F0D1
:101FD800F5FD012105A83F682D68DDF8148005F09E
:101FE80030FD0095CDE901803B460F4A2146304639
:101FF80006F0DCFB642005F0E1FD00F0B3FF0020F3
:1020080007B0BDE8F08300F09FFF642005F0D6FD1F
:10201800012399E74870002050AE0008C401002051
:10202800C0010020C801002041B00008F7B5174FD3
:102038000821054616463868002205F0CAFD044600
:10204800642005F0BBFD01220821386805F0C1FDB8
:10205800044464B234B131462846FFF701FF00203A
:1020680003B0F0BD00F070FF642005F0A7FD3368F1
:102078000093074B074A1B682146284606F096FB43
:10208800642005F09BFD00F06DFFE8E7C401002027
:10209800487000205AAE0008F7B5174F0F210546C3
:1020A80016463868012205F094FD0446C82005F05C
:1020B80085FD00220F21386805F08BFD044464B2C9
:1020C80034B131462846FFF7CBFE002003B0F0BDFF
:1020D80000F03AFF642005F071FD33680093074B68
:1020E800074A1B682146284606F060FB642005F075
:1020F80065FD00F037FFE8E7C801002048700020C0
:102108005AAE000804292DE9FF47054614463F4EFC
:1021180074D10A220021606807F05AF800210746A6
:102128000A22A06807F054F84FF0000980460DF124
:102138000E01E068ADF80E9005F042FC78B100F0B1
:1021480003FF642005F03AFD0223019323680093FE
:102158002F4A33680021284606F028FB45E007EBA4
:102168000803BDF80E208DF80D3001210DF10D008A
:1021780005F06CFC30B100F0E7FE642005F01EFDB0
:102188000323E2E7FFB2012F18D047B1022F1AD07C
:1021980000F0DAFE642005F011FD0623D5E71D4B9B
:1021A8005FFA88F20821186805F013FD80B100F085
:1021B800CBFE642005F002FD0523C6E75FFA88F22E
:1021C8000921154BEFE75FFA88F20F21134BEAE775
:1021D80000F0BAFE642005F0F1FC23680093104A71
:1021E80033680021284606F0E1FA642005F0E6FC91
:1021F80000F0B8FE002004B0BDE8F08700F0A4FEAF
:10220800642005F0DBFC01239FE700BF4870002035
:1022180050AE0008C4010020C0010020C801002001
:102228005AAE000843685B6C13B5044643B398473D
:1022380030B363685B6B83B12046984768B16368C5
:102248009B6923B101220DF107012046984700221E
:102258000DF10701104804F067FC63685B6A7BB105
:102268002046984760B100220DF107010B4804F0A1
:10227800ADFC38B10A4B986843681B6A03B19847AC
:1022880002B010BD63685B69002BF9D001220DF123
:10229800070120469847F3E7C8760020F07600202B
:1022A8004870002073B52748274C284D284E04F065
:1022B800F5FA0821206005F095FC224804F0EEFAB2
:1022C8000921286005F08EFC224804F0E7FA0F2166
:1022D800306005F087FC00220F21306805F079FC9A
:1022E8000022092128681C4D05F073FC00220821F2
:1022F800206805F06EFCC82005F060FC012208216A
:10230800206805F066FC154B0093154A154B1649D5
:10231800164805F0A5FB164805F027FC4FF0FF31DD
:10232800284605F05BF800220821206805F051FCDA
:10233800C82005F043FC01220821206805F049FC6B
:10234800ECE700BF81B00008C4010020C0010020F4
:10235800C801002061AE0008347600202D22000854
:10236800C8760020F07600206AB10008507000207E
:102378004870002013460A4601460148FFF73CBC56
:102388006071002013460A4601460148FFF7A2BCC7
:102398006071002013460A4601460148FFF7C2BB98
:1023A8006071002013460A4601460148FFF768BCE1
:1023B8006071002037B5094C094B009313460A4653
:1023C80001462046FFF7D8FB0546C82005F013FC58
:1023D800204605F0CAFBE8B203B030BD60710020AA
:1023E80071B1000801292DE9F743054689461746CA
:1023F800214E39D1DFF88C800022D8F8000005F092
:10240800FCFB0446642005F0F6FB4A464946D8F82A
:10241800000005F0F2FB044464B27CB100F094FDC6
:10242800642005F0E8FB052301933B680093134AF9
:1024380033680021284606F0B9F90CE000F084FD65
:10244800642005F0D8FB3B6800930D4A33682146A9
:10245800284606F0ABF9642005F0CDFB00F082FDBC
:10246800002003B0BDE8F08300F06EFD642005F0A5
:10247800C2FB0123D8E700BF6071002050AE0008FE
:102488005AAE0008D001002001292DE9F74305467E
:1024980089461746214E3AD1DFF88C800022114632
:1024A800D8F8000005F0A9FB0446642005F0A3FB5A
:1024B8004A460021D8F8000005F09FFB044464B2A6
:1024C8007CB100F041FD642005F095FB05230193E4
:1024D8003B680093124A33680021284606F066F9E3
:1024E8000CE000F031FD642005F085FB3B680093AB
:1024F8000C4A33682146284606F058F9642005F04E
:102508007AFB00F02FFD002003B0BDE8F08300F057
:102518001BFD642005F06FFB0123D8E760710020E4
:1025280050AE00085AAE0008CC01002043685B6C2E
:1025380013B5044643B3984730B363685B6B83B104
:102548002046984768B163689B6923B101220DF161
:1025580007012046984700220DF10701104804F0B2
:10256800E3FA63685B6A7BB12046984760B1002252
:102578000DF107010B4804F029FB38B10A4B9868A4
:1025880043681B6A03B1984702B010BD63685B6972
:10259800002BF9D001220DF1070120469847F3E7F7
:1025A80018770020407700206071002073B5234819
:1025B800234C04F073F9436820601D6801231A4610
:1025C8000021A8470022012120681E4D05F015FBB7
:1025D800C82005F010FB01221146206805F00DFB0C
:1025E800164804F05BF943682860002211461E680B
:1025F8000123B047012200212868134D05F0FDFA98
:10260800124B0093124A134B1349144805F028FA49
:10261800134805F0AAFA4FF0FF31284604F0DEFE11
:1026280000220121206805F0E8FAC82005F0E3FA45
:1026380001221146206805F0E0FAECE780B10008B5
:10264800D0010020CC0100200476002035250008A8
:1026580018770020407700203AB2000868710020FF
:10266800607100202DE9F047032986B005468A46A7
:10267800144640F0888000211022606806F0A8FD0A
:10268800002706460DF11601A068ADF81470ADF8E4
:10269800167005F095F938B100F056FC642005F085
:1026A800C0FA0223019311E0F6B2BDF816208DF8A6
:1026B800136001210DF1130005F0C8F9A0B100F075
:1026C80043FC642005F0ADFACDF804A0236800931C
:1026D800304A314B0021284606F068F8642005F09E
:1026E800A0FA00F03FFC23E0304600F077FB00281A
:1026F80042D0304600F072FB05A94278304600F01F
:102708007FFB074688BB304600F068FB417801290B
:1027180012D105A82468BDF8146005F092F9CDE936
:1027280001601D4B1D4A00943946284606F03EF8C4
:10273800002006B0BDE8F087304600F04FFB417836
:1027480002290BD105A82468BDF8146005F079F9B1
:102758000094CDE90160104B114AE5E700F0F4FB65
:10276800642005F05EFA07239CE700F0EDFB642087
:1027780005F057FA052395E700F0E6FB642005F01D
:1027880050FA06238EE700F0DFFB642005F049FAD3
:10279800012387E750AE00080AB2000869B20008B2
:1027A8007AB2000804292DE9FF410646144679D17A
:1027B80010220021606806F00BFD1022002105465A
:1027C800A06806F005FD4FF000088DF80C000DF12B
:1027D8000E01E068ADF80E8005F0F2F8074640B348
:1027E80000F0B2FB642005F01CFA02230193236871
:1027F8000093304A304B4146304605F0D7FF6420FD
:1028080005F00FFA00F0AEFB00F09EFB642005F027
:1028180008FA0523019323680093264A264B0021D2
:10282800304605F0C3FF642005F0FBF900F09AFB81
:1028380034E09DF80C30BDF80E20EDB22B44012198
:102848000DF10D008DF80D3005F000F960B100F0C4
:102858007BFB642005F0E5F90323019323680093CB
:10286800144A154B3946C7E7284600F0B7FA00283E
:10287800CAD0284600F0B2FA0379002BC4D103A9C4
:102888000122284600F0EAFA01460028BCD1236854
:1028980000930A4A084B304605F088FF002004B030
:1028A800BDE8F08100F050FB642005F0BAF901237F
:1028B800B0E700BF50AE00080AB200085AAE0008E0
:1028C80070B50129B0B005460C46164640F0918017
:1028D800B422002103A806F065FD002000F07EFA6E
:1028E800002243784D49009310464D4B03F0AEFC4F
:1028F80003A806F0F4FC0646204600F06FFA437879
:102908004649009303A82246464B304403F09EFCF8
:1029180003A806F0E4FC0446022000F05FFA4378BE
:102928003E49009303A8404B0222204403F08EFC4A
:1029380003A806F0D4FC0446032000F04FFA4378BD
:102948003649009303A8394B0322204403F07EFC48
:1029580003A806F0C4FC0446042000F03FFA4378BC
:102968002E49009303A8324B0422204403F06EFC46
:1029780003A806F0B4FC0446052000F02FFA4378BB
:102988002649009303A82B4B0522204403F05EFC44
:1029980003A806F0A4FC0446062000F01FFA4378BA
:1029A8001E49009303A8244B0622204403F04EFC42
:1029B80003A806F094FC0446072000F00FFA4378B9
:1029C8001649009303A81D4B0722204403F03EFC40
:1029D80003A806F084FC014603A805F032F803AB0F
:1029E8000090174A0021284605F0E0FE002030B08C
:1029F80070BD00F0A9FA642005F013F901230193D2
:102A0800336800930F4A104B0021284605F0CEFE8C
:102A1800642005F006F900F0A5FAE7E790B200088F
:102A28008BB20008EFB20008A6B20008B6B20008E0
:102A3800C4B20008CDB20008D4B20008D9B2000868
:102A4800E0B2000850AE00080AB2000807B500233B
:102A58000193074B01AA18680A2105F0EDF8012235
:102A680001A9052000F0FAF903B05DF804FB00BFE6
:102A7800D401002007B500230193074B01AA186869
:102A8800082105F0D9F8012201A9042000F0E6F98F
:102A980003B05DF804FB00BFD801002007B5002390
:102AA8000193074B01AA18680B2105F0C5F801220C
:102AB80001A9032000F0D2F903B05DF804FB00BFC0
:102AC800E801002007B500230193074B01AA186805
:102AD800082105F0B1F8012201A9022000F0BEF991
:102AE80003B05DF804FB00BFDC01002007B500233C
:102AF8000193074B01AA1868092105F09DF80122E6
:102B080001A9104600F0AAF903B05DF804FB00BF64
:102B1800E4010020054B10B51868436804225C687E
:102B28000B780021A047002010BD00BFEC01002059
:102B380008B5054803F0B2FE044B002818600CBF26
:102B48006FF01200002008BD41B2000838020020D2
:102B5800F0B58A488A4C85B000F0BCF9894803F082
:102B68009DFE4FF493720521206005F06EF858B968
:102B78008549864B4B60206820238B6005F046F81A
:102B88000521206805F04FF88148824C03F086FE45
:102B98004FF4B9720921206005F057F860B97E49F1
:102BA8007E4B4B6020684FF400738B6005F02EF865
:102BB8000921206805F037F8002211461046FFF772
:102BC80095FF7348764C03F069FE4FF4B9720821FB
:102BD800206005F03AF860B97249734B4B60206881
:102BE8004FF480738B6005F011F80821206805F018
:102BF8001AF8002211461046FFF764FF6B486C4C28
:102C080003F04CFE4FF4B9720B21206005F01DF85B
:102C180060B96849684B4B6020684FF400638B606B
:102C280004F0F4FF0B21206804F0FDFF0022114698
:102C38001046FFF733FF5348604C03F02FFE002285
:102C48000821206005F001F860B95D495D4B4B60D3
:102C580020684FF480738B6004F0D8FF0821206847
:102C680004F0E1FF002211461046FFF703FF454834
:102C7800554D03F013FE4FF4B9720A21286004F091
:102C8800E4FF60B95149524B4B6028684FF48063A8
:102C98008B6004F0BBFF0A21286804F0C4FF0022FF
:102CA80011461046FFF7D2FE364803F0F7FD494BB0
:102CB800012204210025186004F0C7FFFFF738FF40
:102CC80000F090F9012203A928468DF80C5000F075
:102CD800C5F84FF47A7004F0A4FF0122284603A92E
:102CE8008DF80C2000F0BAF83B4D4FF47A764FF48B
:102CF8007A7004F096FF00272846CDE9017700F0A6
:102D08007FFA4FF47A71284604F0C6FF284605F08A
:102D180013F801900A2004F084FF4FF47A712846D2
:102D280004F0BAFF284605F007F80290284604F098
:102D380095FF019A40F24B6301A9534306200222F2
:102D4800B3FBF6F3019300F089F8029A41F2456368
:102D580002A9534307200222B3FBF6F3029300F0C3
:102D68007DF803AA08212068039704F065FF012273
:102D780003A9042000F072F8B9E700BF78720020B8
:102D8800E001002080B1000814020020257C000822
:102D980061AE0008E401002020020020F52A0008A6
:102DA800DC01002008020020CD2A000881B00008BC
:102DB800E80100202C020020A52A0008D8010020E4
:102DC800FC0100207D2A0008D4010020F001002029
:102DD800552A0008EC01002044020020064B1B780D
:102DE800834281BF054B1B6800EB800003EB80002A
:102DF80098BF0020704700BF920900203C020020C5
:102E080070B5134B1B7883420E4618D9114B1D68B9
:102E180000EB800005EB80056B78934212D16421AA
:102E28000D4804F0DBFA044678B96A78A968304698
:102E380006F08EFA084804F0A5FA204670BD6FF037
:102E48004D04FAE76FF01504F7E76FF00F04F4E7A5
:102E5800920900203C0200204C7600202DE9F04128
:102E6800194B1B78834206460F4623D9174B1B681C
:102E780000EB800403EB840494F8018090451CD196
:102E88006421134804F0AAFA0546C8B96278A06814
:102E9800394606F05DFAE3780D480133E37004F033
:102EA80071FA23691BB1424639463046984728468D
:102EB800BDE8F0816FF04D05F9E76FF01505F6E70D
:102EC8006FF00F05F3E700BF920900203C020020D5
:102ED8004C7600200D49002370B50B7010B96FF0C7
:102EE800150070BD0A4A1D4610601426DCB206FBA8
:102EF80004020133926832B9002DF0D00C70002C16
:102F0800EDD01046EDE70125F0E700BF920900205B
:102F18003C02002070B50A480A4C03F0BFFC436825
:102F280020601D680A2201230021A8472068436801
:102F38005C680023A4460A221946BDE87040604731
:102F480081B0000840020020054B1868436810B49F
:102F58005C680A22A4460123002110BC604700BF18
:102F680040020020054B1868436810B45C680023D1
:102F7800A4460A22194610BC604700BF4002002040
:102F8800F0B5154B8BB06A46064603F12007144688
:102F980018685968154603C50833BB422A46F7D155
:102FA80018681B792B712860FFF7CEFF642004F0A6
:102FB8007DF9234613F8014B002CFBD1074B084A37
:102FC8002146304605F0F2FB642004F06FF9FFF764
:102FD800C9FF20460BB0F0BD87B300087BB30008DB
:102FE80082B300087FB510220021684606F0DAF99E
:102FF800154C164A4FF44033C4E900230125002339
:10300800134AA360022620462561A5612362E36274
:10301800A262E360E6612363636100F04DF880B962
:103028000C23CDE90035694607232046029300F0BA
:1030380047F930B90D2369462046CDE9003600F03E
:103048003FF904B070BD00BF4402002000200140D9
:103058000100000F10B5044688B01422002103A80F
:1030680006F0A0F92268124B9A421ED103F58C3360
:10307800002101915A6C0F4842F480725A645A6CCC
:1030880002F480720192019A02911A6B42F00402D2
:103098001A631B6B03F004030293029B0C220323A5
:1030A80003A9CDE9032300F09DF908B010BD00BFC6
:1030B800002001400008024010B50446002800F036
:1030C8009980036C23B9436480F83C30FFF7C2FF52
:1030D800236CDB0600F18C80236C23F4885323F0E7
:1030E800020343F002032364434B5A6822F440323C
:1030F8005A605A6861680A435A60236821695A68A5
:1031080022F480725A605A6842EA01225A605A6868
:10311800A16822F040725A605A680A435A609A6855
:10312800E16822F400629A609A680A439A60334917
:10313800A26A8A4250D0996821F0706199609968B2
:103148000A439A609A68E16A22F040529A609A6843
:103158000A439A609A68A16922F002029A609A6802
:1031680042EA41029A60226A002A3DD05A68616A9E
:1031780042F400625A605A6822F460425A605A68FF
:10318800013942EA41325A60DA6AE16922F470028E
:10319800DA62DA6A013942EA0152DA629A68216B24
:1031A80022F400729A609A6842EA41229A609A6808
:1031B800616922F480629A609A68002042EA81225A
:1031C8009A606064236C23F0030343F001032364D3
:1031D800002384F83C3010BD9A6822F070629A602F
:1031E8009A6822F04052B4E75A6822F40062CAE7AB
:1031F8000120EDE70120EEE7002301400100000F68
:1032080082B00023019390F83C30012B4ED001236B
:1032180080F83C3003689A68D10705D59A68D207C8
:1032280014D4002002B070479A68214942F0010284
:103238009A60204A1268B2FBF1F202EB4202019254
:10324800019A002AEAD0019A013AF8E7026C22F4BE
:10325800E06222F0010242F4807202645A68510569
:1032680041BF026C22F4405242F480520264026C64
:1032780012F480521CBF426C22F006024264002203
:1032880080F83C206FF022021A600B4A5268D2067E
:1032980008D1986810F04050C3D19A6842F0804233
:1032A8009A60BFE7054A9342BBD1F2E70220B9E72B
:1032B80040420F00307300200023014000200140ED
:1032C800F7B50023019390F83C30012B7AD00D68B4
:1032D8008E680123092D80F83C30ACB2036829D9E7
:1032E80004EB4402DF681E3A4FF0070C0CFA02FCAC
:1032F80027EA0C07DF60DF6806FA02F23A43DA6071
:103308004968062901EB810224D8596B053A1F2622
:10331800964021EA06015963596B04FA02F20A43FE
:103328005A632C4A934231D0002380F83C30184627
:1033380003B0F0BD1F6905EB45024FF0070C0CFA0E
:1033480002FC27EA0C071F611F6906FA02F23A43DA
:103358001A61D5E70C294FF01F010BD81E6B233AD1
:10336800914026EA01011963196B04FA02F20A4333
:103378001A63D6E7DE6A413A914026EA0101D9622A
:10338800D96A04FA02F20A43DA62CAE7122D1BD19B
:10339800114A536843F4800353600F4A5368122D4F
:1033A80043F400035360BFD10C4B0D4A1B68B3FBB9
:1033B800F2F20A2353430193019B002BB4D0019BE3
:1033C800013BF8E70220B3E7A5F11103012BABD8C5
:1033D800E3E700BF002001400023014030730020D4
:1033E80040420F002DE9F04F85B00B68DFF8A0814F
:1033F800654ADFF8A091019300234FF0010C019C6E
:103408000CFA03FC04EA0C06B44540F0AA804C68A8
:1034180024F01007022F16D14FEAD30A00EB8A0ACC
:1034280003F0070BDAF820504FEA8B0B4FF00F0E22
:103438000EFA0BFE25EA0E0E0D6905FA0BF545EAA4
:103448000E05CAF820504FEA430A0325D0F800B009
:1034580005FA0AF5ED4304F0030E05EA0B0B0EFA24
:103468000AFE013F4EEA0B0E012FC0F800E011D80A
:10347800876807EA050BCF6807FA0AFE4EEA0B07CA
:103488008760476827EA0C0CC4F300179F4047EA97
:103498000C074760C7683D408F6807FA0AF73D4345
:1034A800C560E5005DD54FF0000BCDF80CB0D8F83D
:1034B8004470364D47F48047C8F84470D8F84470D3
:1034C80007F480470397039F23F0030707F180471A
:1034D80007F59C3703F0030ED7F808A04FEA8E0EC5
:1034E8004FF00F0C0CFA0EFCA8422AEA0C0C3FD045
:1034F80005F58065A8423DD005F58065A8423BD01A
:1035080005F58065A84239D005F58065A84237D011
:10351800484537D005F50065A8420CBF06250725A4
:1035280005FA0EF545EA0C05BD601568F74314F475
:10353800803F0CBF3D4035431560556814F4003F8B
:103548000CBF3D4035435560956814F4801F0CBF8F
:103558003D4035439560D568A40254BF3D4035438E
:10356800D5600133102B7FF448AF05B0BDE8F08F6C
:103578005D46D5E70125D3E70225D1E70325CFE747
:103588000425CDE70525CBE7003C014000000240BB
:1035980000380240001402400B6801330B60014BF5
:1035A8001B6818472C7300202DE9F04F85B09B4607
:1035B8000E9CDFF890A0012CB8BF0124012B0CBF92
:1035C800302320231546804689460194029301261C
:1035D8000A2700220AF101040AB9AA451FD2B5FB3D
:1035E800F4F049463030C04701360122013F012F2F
:1035F800B5FBF4F14FF00A0304FB1155BAFBF3FADB
:10360800E8D1494605F13000C047BBF1030F03D1AB
:10361800019B9C1B002C0FDC05B0BDE8F08F019BC3
:10362800BB42E3DBBBF1020FE0D8494602980392A4
:103638000136C047039AD9E749462020C047013CD4
:10364800E8E700BFFFC99A3B014B1860704700BF0D
:103658002C73002007B50023019302460B4603484C
:1036680001A904F0F5FB03B05DF804FBA1350008DF
:103678004FF01003EFF3118183F31188BFF36F8FBD
:10368800064B4FF0FF329A62DA6281F31188BFF37A
:103698006F8F034B034A1A600020704700ED00E06B
:1036A800307300200024F400024A136823F0020358
:1036B8001360704710E000E0024A136843F0020309
:1036C8001360704710E000E0064A1369012923F0EF
:1036D8000403136101D130BF704740BF20BF20BF32
:1036E800704700BF00ED00E0054B1A681B6802F048
:1036F800007203F0006313430CBF012000207047E1
:1037080000380240264B1A6802F44042B2F5404F96
:103718001A4632D1234B984231D8234B984201D9CB
:10372800022304E0214B984294BF0023012312682E
:1037380002F44042B2F5004F05D11B4A904220D90D
:10374800002B08BF0223164A126802F44042B2F561
:10375800804F05D1144A90421AD9002B08BF022382
:1037680013490A6822F00F021A430A60086800F039
:103778000F00C31A5842584170470023D7E7032364
:10378800D5E70A4A9042DED9002B08BF0123DAE7C1
:10379800064A9042E4D9002B08BF0123E0E700BFA6
:1037A80000700040804A5D050090D00380C3C901C5
:1037B800003C02400B68224AC3F3031370B5214D45
:1037C800D45C2B6820FA04F4A3420E4627D31E4B80
:1037D8001A6842F080721A601A689201FCD59A68D9
:1037E800316822F0F0020A439A609A6822F00302D4
:1037F80042F002029A60144B9A6802F00C02082AFE
:10380800FAD19A68716822F4E0520A439A609A6879
:10381800B16822F460420A439A60012005E020461C
:103828001CB1FFF76FFF0128D1D02B68A34203D941
:10383800204624B1FFF766FF012808BF2C6070BD41
:10384800F0B300083073002000380240F8B5044691
:10385800FFF74AFF01282BD126686568A468154838
:1038680006F03F02B0FBF2F0C5F308024243200C19
:1038780001304000B2FBF0F00F4A13689F0706D4EE
:10388800136843F00103136013689B07FCD50A4AC9
:103898000A4B57683B40334343EA851353605368E8
:1038A80023F4403323435360BDE8F840FFF782BF59
:1038B8000020F8BD0024F400003802400080BFFF5B
:1038C80030B50C4D0C4987B000240E23CDE90243D6
:1038D8004FF44072094BCDE90444CDE90044284631
:1038E80003F0F4FD2846064906F096FB204607B08B
:1038F80030BD00BFBC02002000220020553C00085B
:1039080000B4000838B500F0FDF91348134C04F072
:10391800AFFC134913480423282206F03FFA124B40
:10392800124A1A604FF47A7000F0E2FB1048114B0B
:103938001B1ADB0800210430994200D138BD10F869
:103948003120256802F0070225F007052A4344F8CC
:10395800042B0131F0E700BF9802002030750020E9
:10396800403A0020A002002034730020958200080D
:10397800F0A6000818A70008F8B50F4BBFF35B8F37
:10398800002553E8007F43E80052002AF9D1BFF32D
:103998005B8F0A4C0A4E361B3611B54200DBF8BD68
:1039A80063685B792BB12368DB6813B1394620461D
:1039B800984701351034F0E79002002018A7000856
:1039C80028A700082DE9F8432C4B1B78054603B9B6
:1039D80060B34FF01003EFF3118483F31188BFF342
:1039E8006F8F274804F04AFC064684F31188BFF31A
:1039F8006F8F78B1BFF35B8F224B53E8002F013AEA
:103A080043E800210029F8D1BFF35B8F8DB1304620
:103A180004F0BDFC25B91C4B1B680BB1FFF7ACFFCC
:103A2800174804F029FC051C18BF01252846BDE8E5
:103A3800F883164C164FDFF85C903F1B3F11A846E1
:103A4800B845E4DA63685A799AB170891B79B17A12
:103A5800800903EB430259F82030D34001F00701F5
:103A680003F00703994204D8236831461B682046AF
:103A7800984708F101081034E2E700BF93090020D5
:103A8800980200208C0200209002002018A700084D
:103A980028A7000830750020044A054B9B1AB1EB93
:103AA800D30F34BF52F8310000207047F0A6000849
:103AB80018A700082DE9F047894616469846B8B970
:103AC800214B224FFF1A3F11044605469A46BC4235
:103AD80002DB2846BDE8F0870AEB0410434632466D
:103AE8004946FFF7E7FF854238BF05460134EEE750
:103AF800174B184903EBC2031D7943681A7907234A
:103B080002EB420203FA02F0454551F8263028BF7D
:103B1800454623EA000305F0070000FA02F21343C2
:103B28000020032223FA02F404F00704A04202F161
:103B3800030238BF20461E2AF4D123F007030343AB
:103B480041F82630C5E700BF18A7000828A70008D5
:103B5800F0A6000830750020114BC31A2DE9F0417A
:103B68001B11174642680F4C013313710E4BE41AB0
:103B780005460E46E4084FF00008A04507D16A68DC
:103B8800012316605371094A1370BDE8F08142465B
:103B98003B4600212846FFF78DFF08F10108ECE7B6
:103BA80018A7000818A70008F0A600089309002025
:103BB80070B5114BBFF35B8F53E8005F6A1C43E895
:103BC80000210029F8D1BFF35B8F2DB90B4C0C4EA7
:103BD800361B3611B54200DB70BD237B43B1236829
:103BE8005B6903B19847002211462046FFF7B4FFEE
:103BF80001351034EEE700BF9402002018A7000832
:103C080028A70008F8B50E4F3D7875B90D4C0E4E33
:103C1800FFF7CEFF361B3611B54207DB0020FFF752
:103C2800D1FE0028FAD101233B70F8BD63685B79A7
:103C38001BB1236820461B69984701351034EBE710
:103C48009409002018A7000828A7000808B5FFF75E
:103C5800AFFF03F091FB094A106028B1084B1B68BD
:103C6800092B01DD03F062FB0020FFF7ABFE002803
:103C7800FAD14FF47A7003F019FBF5E72803002016
:103C88008C020020436870B500245C71074D084B16
:103C9800ED1A0646ED08AC4200D170BD002322465D
:103CA80019463046FFF706FF0134F4E718A7000865
:103CB800F0A60008054B984205D3783398428CBF8C
:103CC8000020012070470020704700BF443A0020C0
:103CD80007B504380190BFF35B8F50E8003F5A1EC8
:103CE80040E800210029F8D1BFF35B8F012B03D1F5
:103CF80001A9034802F0EAFE03B05DF804FB00BF27
:103D0800A002002020231A460149024806F046B8BE
:103D1800E03A00202C0300207FB5047A457A019010
:103D280014F001044FEA15150ED0019B1A7A920778
:103D380004D55B69104C0393039BB3B901A90E48E2
:103D480002F0C4FE04B070BD002DEED0A54201986B
:103D5800EBD9214604F0FEFA0646FFF7ABFF10B197
:103D68003046FFF7B5FF0134F0E71D6803A9204688
:103D780002F0ACFE0395DFE72C0300200EB403B578
:103D880003AB014653F8042B0448019304F060F890
:103D9800002002B05DF804EB03B07047BD86000850
:103DA8002DE9F04F85B011F00204064690469DF8C3
:103DB800387001F0010901F0080507D011F0440F2F
:103DC80037D11A463249FFF7D9FF0446B9F1000F37
:103DD8000AD0304B304953F82720304B3046002A60
:103DE80008BF1A46FFF7CAFF3DB12D4B2D4953F8BE
:103DF80027203046FFF7C2FF0546B8F1000F44D030
:103E0800012303FA07F7284B17F0100F274F18BFA5
:103E18001F46BDF840109DF83C00FFF73DFE3946AF
:103E280002463046FFF7AAFF2844204405B0BDE803
:103E3800F08F1F4A116831B31E4A4FF4616E14683F
:103E4800B3FBF4F34FF47A7CB3FBF1F4B4FBFEF26A
:103E58000EFB124E01FB14340CFB04F44FF03C0A29
:103E6800B4FBF1FB01FB1B44BEFBFAF30CFB04F4AF
:103E7800B4FBF1F1CDE901B10AFB13E100910E4960
:103E8800FFF77CFFA1E708469FE7084FC1E700BF9F
:103E98003FB400082CAB00081CB0000831B400087F
:103EA80040AB000864B400083BB4000836B400080E
:103EB800480300204C03002048B400082DE9F843CB
:103EC8009846089B1746DA0604460E4605D49B0614
:103ED8004CBF21492149FFF751FFDFF888900025A1
:103EE800454528DBDFF88080DFF880900025AF4269
:103EF80027D9725D49462046FFF740FF0135082D56
:103F0800F5D11749DFF85C80DFF864902046FFF7A9
:103F180035FF0025AF4219D9725DA2F120035F2B4E
:103F280028BF2E2249462046FFF728FF0135082DD5
:103F3800F0D1BDE8F88349462046FFF71FFF013559
:103F4800CEE741462046FFF719FFD7E7414620460E
:103F5800FFF714FFEAE700BFF8B40008F5AF000860
:103F680012B4000810B400080EB4000808B4000821
:103F780019B5000838B50C46E107054603D5084AC7
:103F88000849FFF7FBFEE20608D4A30628464CBF03
:103F980005490649BDE83840FFF7F0BE38BD00BF07
:103FA80031B400081CB00008F8B40008F5AF0008E8
:103FB8002DE9F0478B7A13F00704174688B00546B9
:103FC8000E460A7A1CD04989C3F3C2038909D24331
:103FD8000291CDE9004302F00102F3683946FFF788
:103FE800DFFE8146337ADA070CD42946304604F0DE
:103FF800F7F94CB3224639462846FFF7BBFF23E0C2
:10400800A146EFE734BB2746EB68069306AA3B4672
:10401800A968304604F0D0F9069A6B681A603AB17C
:10402800AB68134413F8014CA4F10A035C425C41E9
:10403800284604F032FB069B1F44002BE4D11CB138
:1040480014492846FFF79AFE284604F026FB08B0D4
:10405800BDE8F087304604F0ADF90F49024628461E
:10406800FFF78CFE4FF000084FF0080A05AA4346F8
:1040780006A93046CDF814A004F09EF9059A002A46
:10408800B8D04B46009706A92846FFF717FF059BAF
:104098009844EBE738B200081CB0000873B5D0E9C3
:1040A80000435D680F4A42F20F738B4228BF0B46EC
:1040B8006846052102F0B2F82B460646042220463F
:1040C800094904F080F92B4632466946204604F037
:1040D8007AF92B4617220549204604F074F902B0F4
:1040E80070BD00BF0EB500082CB4000814B4000859
:1040F800084A10B50123084C13600021A04204D8D7
:1041080001B11360054B186010BD40085B00012128
:10411800F4E700BF4C03002040420F004803002092
:104128002DE9F04796B004460023029304F033FDCE
:10413800204604F0F2FC18B94E49606904F0FDFA13
:10414800A06814220021083005F02CF9204604F05C
:104158008BFCA2680C2334320DEB030009A904F090
:10416800BEFB039A034632B300BB0DF12408054693
:10417800074682460DF110090026039B9F4238D25C
:1041880002ABCDF8009032463946504600F07EFC2E
:10419800731C01D0029B8BB95FBB374B0093374A26
:1041A800099B0221204604F062FD04E0344A022102
:1041B800204604F05CFD6FF0070535E01968D8F873
:1041C800000005F093F801360028D6D1DDF808C0C4
:1041D800DCF80C303BB166460FCEA56808350FC534
:1041E80033682B603D460137DCF808A008F1040865
:1041F800C2E7A068039E4369761B2BB9214A0221B6
:10420800204604F034FDD6E7037E8BB19E42427E01
:1042180002D313449E420BD983681B4A02212046CD
:1042280004F025FD6FF01505284616B0BDE8F087A7
:1042380000F53A7002F098FDA368B3F8542242F0F2
:104248008002A3F8542209AA02EB850231465B6971
:10425800204698470546A068B0F854326FF3C71354
:10426800A0F854324FF0FF3100F53A7002F00CFD1F
:10427800DAE700BFF8B40008A4B400089EB4000848
:104288008AB40008B8B40008D6B400082DE9F04F85
:104298008368BFF35B8FADB0044603F5157353E82D
:1042A800002F42F0080243E800210029F7D1BFF3AC
:1042B8005B8FA3681B79022B40F0D38200230C93F9
:1042C8006068036801221D690DF12F010CABA84736
:1042D8000C9B002B00F0C5829DF82F100B06EFD425
:1042E800A0684379022B00F24882DFE813F003004C
:1042F800400248020D291BD00A2919D0B0F85432BF
:104308006FF30F23A0F85432092952D037D8002967
:10431800D6D0082900F01982A1F120035E2B00F203
:104328002382B0F8543243F04003A0F854322FE10E
:10433800D0F8543213F47F4F05D0D0F85432C3F379
:1043480007239942E0D1B0F8543261F30F23A0F863
:104358005432C38D7BB99349606904F0EEF9A368C0
:1043680002221A71002283F834201A86DA85204640
:1043780000F06EFCA4E72046FFF7D2FEEFE71B290A
:1043880014D07F29C8D1D0F854325D0798D5B0F839
:10439800543243F04003A0F85432D0F8543299060E
:1043A80000F1DE81204604F0A4FC89E70123437173
:1043B80086E7D0F85432C3F380030393002B3FF40D
:1043C8007FAFB0F8543243F04003A0F85432C38DA5
:1043D800FF2B3FF475AF028E00F1340100F59A709F
:1043E80004F0B6FFA268138E1344002183F8341139
:1043F80002F59A720C231FA90DA804F070FAA3689D
:104408001A8E134493F83330202B6FD0093B042BBA
:104418008CBF002301230D9E002E00F03582002B57
:1044280066D1012E00F02F8206F1FF3800261FAD5D
:1044380037460DF14009002355F804BB1A931A4674
:104448001AABCDF800903146384602F1010A00F067
:104458001DFB1A9B002B3FF433AF1968584604F034
:1044680045FF1A9B002845D19A46002B3FF428AFF8
:104478000136B0459F68DED12CAB03EB86034FF0C5
:10448800000B53F8348C404604F051F9D946059096
:10449800CDF810B05D465F46BAF1000F2ED0DAF8BD
:1044A80008001AF1000318BF012302931AAB009306
:1044B8002A4615AB029900F0E9FA159B03B3059A51
:1044C8001868414604F01EFF70B9159B186804F07F
:1044D80006FF049B834238BF03469BB204930BF14B
:1044E800010B0FB9039FA9460135D5E7012392E7D0
:1044F800B0469BE75246002BA2D1E1E65046D0E7F2
:10450800BBF1010F50D12CAB03EB860353F8340CED
:1045180004F00DF90546BAF1000F01D0DAF808A049
:10452800A3680299083300934A461AAB504600F034
:10453800ADFA1A9B186804F0FAF8854207D01A9B5E
:104548001968421B92B22944204604F0D0FBA368A4
:104558001A8E1A4492F83420202A1DD0093A042AC7
:104568001AD9D3F85422D70711D5B3F854226FF3C8
:104578000002A3F854222021204600F037FBA2684D
:10458800B2F8543243F00103A2F8543298E62021DD
:10459800204600F02BFB93E60121204604F0D1FAD7
:1045A8008EE600BFF8B4000805937FF689AE2CAB01
:1045B80003EB860252F8343C0393184604F0B7F82C
:1045C800059BA2680890CDE9059B9385BAF1000F79
:1045D80071D0DAF80800A368059A029908330093A5
:1045E8001AAB00F053FA059B01330593039B002B8C
:1045F80063D11A9B1F68002F6AD1A3689F85069B09
:10460800013B0693E2D1A149606904F096F820467F
:1046180000F01EFB2CAB03EB860309F1010753F8EE
:10462800340C04F084F80646BAF1000F00F08780D5
:10463800DAF80800029915AB00934A460EAB00F071
:1046480025FA0E9BD3F800804FF6FF75BAF1000FDC
:1046580079D0DAF8080002991AAB00933A460FAB02
:1046680000F014FA0F9B07F10109CBB10E9A1868F4
:10467800116800228F5C835CBB4205D123B10132F3
:104688004FF6FF739A42F5D10EB1B24259DB95420B
:104698000BF1FF3BA8BF1546BBF1010FADB250D1DE
:1046A800002D3FF40DAEAA1B92B208EB060120467E
:1046B80004F01DFB04E650468DE71A9B1868002895
:1046C80097D0089A039904F01DFE002891D07DE741
:1046D8006F4804F02CF8049B1844A3681FFA80F86C
:1046E8006B48DD8C04F023F80990384604F01FF875
:1046F800A268A8EB000083B20793938D591C91859B
:10470800099AAD1A95FBF8F81FFA88F8B3FBF8F583
:1047180008FB15339BB25BB900975D4B5D4A0721D7
:10472800204604F0A4FA0799204600F0F3F966E75A
:104738003B46594A0721204604F099FAF3E75046C8
:1047480078E74F4682E7504685E7D0F854325E074F
:104758007FF5B6ADB0F8543243F04003A0F85432B8
:10476800204604F0E1FAABE5D0F85432A8E55B291D
:1047780001D102231BE6D0F85432002317E60023A8
:104788004371D0F854325A077FF59AAD31391B2955
:104798003FF696AD01A353F821F000BF3148000859
:1047A8003D4800085B48000825480008C942000841
:1047B800C9420008C9420008C9420008C9420008A5
:1047C800C9420008C9420008C9420008C942000895
:1047D800C9420008C9420008C9420008C942000885
:1047E800C9420008154800081D480008C9420008C9
:1047F80029480008C942000835480008C94200088D
:10480800C9420008C942000841480008204604F08F
:10481800D1F955E5204604F0C5F951E50323437164
:10482800204604F0B8F94BE503234371204604F011
:10483800ACF945E503234371D0F85432B0F854225B
:1048480003F0010383F0010363F30002A0F854228C
:1048580036E503234371D0F854325B077FF530AD5A
:10486800A0E5A368BFF35B8F03F5157353E8002F2A
:1048780022F0080243E800210029F7D1BFF35B8F3B
:104888002DB0BDE8F08F1E46B246F5E5F8B4000835
:104898000FB40008F1B400081CB0000870B5044655
:1048A8004068294A1E46036886B01D682346A84703
:1048B8000546002845D101464FF44072A06804F02F
:1048C80071FDA0682368036000F53A7005F0B8FA36
:1048D800A368B3F85422186842F01002A3F85422CF
:1048E800B3F8542265F38202A3F85422B3F8542291
:1048F80042F02002A3F8542201221A71134A5A6284
:1049080003F015FFA36883F82800A368B3F85422BE
:1049180065F34102A3F854220E2303930A9B0094E3
:10492800CDE90163D4E90A01094BCDE904554FF4F7
:10493800006202F0CBFDA368616AC3F8FC0205F0CF
:104948006BFB284606B070BD5D8700081800500054
:104958009549000838B583681B79012B054610D1A5
:104968000949406903F0E9FEAB68002402222846A1
:104978001A7183F834401C86DC8500F069F92046FA
:1049880038BD6FF02200FBE7F7B400082DE9F041CD
:104998000446884617464FF426764FF41675A068E5
:1049A800284405F044FCA068002243190121304442
:1049B800103502F0F1FEB5F5267F06F11406EED1AA
:1049C8006068036800219B689847002840D1B8F1C7
:1049D800000F04D03A462146E06904F0ECFA20467C
:1049E800FFF7B8FFA0BB1B4F1B4EA06803214FF079
:1049F800FF3200F5267002F0E3FE0546A0684FF08E
:104A0800FF3100F53A7002F03FF93DB12B462046E0
:104A1800124A0221BDE8F04104F029B96068036830
:104A28005B6903B198473A462046022103F053FEDA
:104A380032462046002103F04EFE2046084A012156
:104A480003F049FEA06800F53A7002F08DF9CCE752
:104A5800BDE8F0810987000895420008FAB400080B
:104A68007187000810B5044613460A4601460648F1
:104A780001F02AF823691B7923B12046BDE81040CC
:104A880003F0C5BE10BD00BF2F88000870B5049C98
:104A98001D4661B91148124B1B1AB2EBD30F04D251
:104AA80000EBC20253682B600EE00023FBE70028EE
:104AB800FBD00378466843B121461046B0472368C7
:104AC800002B08BF00242C6070BD14235A43B11872
:104AD800B358002B18BF0B46E5E700BF28A700080E
:104AE80058A70008014A024903F0F6BF11B50008AB
:104AF8001CB0000859B1002981EAE172A2EBE17209
:104B0800CCBF412342230249406903F0E5BF704707
:104B180015B5000859B1002981EAE172A2EBE172EA
:104B2800CCBF432344230249406903F0D5BF7047F3
:104B380015B500082DE9F0410646054656F8084F18
:104B480004F11C00E28D218E03F0B3FE3046B4F868
:104B58002080678C03F0CDFF18B10A49686903F01B
:104B6800BBFFB84507D1A18BE38B2846C91ABDE81E
:104B7800F041FFF7CFBF618C238C2846C91AFFF795
:104B8800B9FFF0E7F8B40008826802494069343296
:104B980003F0A2BF1CB0000870B504460D461646C7
:104BA80012B14069FFF79EFFA268138E3433134495
:104BB80020460C4A002104F05AF8204650F8083FD5
:104BC800DA8D1A8603F095FF28B106B11DB10649A2
:104BD800606903F081FF6942204609B2BDE8704070
:104BE80003F0AFBF1CB00008F8B4000813B5836821
:104BF8008DF80710D3F85422D20704461DD5198E14
:104C0800DA8D8A4219D0481C18860B449DF8072073
:104C180083F83420A368D3F854325B070BD5606956
:104C2800094903F059FF204603F077FF18B10749F7
:104C3800606903F051FF02B010BD01220DF10701B8
:104C4800204604F022F8F6E719B50008F8B4000881
:104C580083680A4A1B6810B50446032104F007F864
:104C6800A368D3F854325B0707D52046FFF78CFFBB
:104C78002046BDE81040FFF75DBF10BD1CB000081E
:104C880013B5074801F00AFE0024012301460094E9
:104C98001A460448FFF702FE204602B010BD00BFC6
:104CA8001CB5000864AB0008406810B50C460168E4
:104CB8008B606368C1E900422BB19B6C1BB1024653
:104CC80004492046984763689B6A0BB12046984779
:104CD800002010BDF38D000808B504464FF01002FF
:104CE800EFF3118382F31188BFF36F8F00F014FB89
:104CF800204600F017FE034803F0FBF900F02EFDF4
:104D0800FCE700BF47B500080A2838B50446074D38
:104D180004D1286843680D215B6898472868436870
:104D2800E1B25B689847204638BD00BFEC0600201A
:104D380010B5044C204601F06BFA2046BDE810403F
:104D4800FEF782BC114D000808B5044801F0A6FD25
:104D5800034B1860FFF7ECFF002008BD1CB50008E6
:104D6800EC0600202DE9F84395680D4E04460F46E1
:104D78004FF0010805F10409BC4201DBBDE8F883E6
:104D8800726908FA04F333EA020207D1736155F82D
:104D980034301BB159F83410204698470134EBE7FA
:104DA800003C01401F2808B505DC164A012311689C
:104DB80083400B431360431F042B19D9A0F10A0346
:104DC800052B17D9042804D8063000F06FFC002002
:104DD80008BD1038062811D8DFE800F00E100410BE
:104DE800100608002A20F0E70220EEE70320ECE78F
:104DF8001720EAE72820E8E70120E6E76FF022001D
:104E0800E6E700BF003C0140CA0710B507D51F28D8
:104E180005DC084B01229C68824022439A608B077C
:104E280007D51F2805DC034A0123D16883400B43BB
:104E3800D36010BD003C0140074930B58C6854F878
:104E4800301004EBC00521B944F830206B600846E7
:104E580030BD6FF00F00FBE7347400200B6884B09E
:104E6800032B2DD8DFE803F0020E1822164A4B68F0
:104E7800116B19431163126B13400093009B0020C0
:104E880004B07047104A4B68516B19435163526B19
:104E980013400193019BF2E70B4A4B68116C1943CD
:104EA8001164126C13400293029BE8E7064A4B68B0
:104EB800516C19435164526C13400393039BDEE712
:104EC8006FF02200DCE700BF003802400B68032BBC
:104ED80020D8DFE803F0020A1118104A4968136B5A
:104EE80023EA01031363002070470C4A4968536B97
:104EF80023EA01035363F6E7084A4968136C23EA77
:104F080001031364EFE7054A4968536C23EA010378
:104F18005364E8E76FF02200704700BF0038024092
:104F2800074B09681B68032907D8DFE801F003036A
:104F380002035B081360002070476FF0220070477F
:104F48003073002030B587B000234FF48052CDE98C
:104F58000032029300F034F803A804F016F9174B56
:104F68001A68910706D41A6842F001021A601A6892
:104F78009207FCD5114CA36823F00303A360A36830
:104F880023F0F003A360A56815F00C05FBD1236896
:104F980023F080732360636823F0706343F0007329
:104FA8006360694603A8FEF751FC236823F4803345
:104FB800236004F0F2F8284607B030BD00380240FC
:104FC800064B1A6C42F080521A641B6C82B003F0D4
:104FD80080530193019B02B0704700BF0038024024
:104FE80073B5044606090D46104612B9114801F07A
:104FF80055FC00230093104B53F8263001930133DE
:1050080002D16FF0040012E0436869461B689847B4
:105018000028F6D12011800200F1804005F00F032E
:105028002A4604F00F0100F5003004F004FB02B03A
:1050380070BD00BF7BB50008FCAB0008F8B504469E
:1050480009480E4601F02AFC00250746B54204F13E
:10505800080400D1F8BD3A4654F8041C14F8080CAA
:10506800FFF7BEFF0135F1E77BB50008024B4AF6B2
:10507800AA221A6000207047003000402DE9F84F3E
:1050880083688C681E684B684FF47A755D43002C02
:1050980043D12846FBF720FD2349DFF89CA0FBF706
:1050A80027FE2249FBF770FD4FF0040B8146E7B25B
:1050B8000BFA07F080B2FBF713FD01464846FBF7F1
:1050C80017FE514680460134FBF71AFF0028EED13F
:1050D8004046FBF71FFF164B643D9D4200F1FF342D
:1050E8001ED8062F1CD8B4F5805F19D205F000F839
:1050F8000546F06810F0030007D10E4B45F25552F3
:105108001A607760B460BDE8F88F04F0F1FF401BC7
:105118003028EED96FF01200F5E76FF02200F2E7C1
:105128006FF01500EFE700BF002474490000FA464D
:105138009CFF8F010030004000F07F458B0741BF86
:10514800074A936843F48053936011F0010003BF4A
:10515800044B4CF6CC421A606FF02200704700BF37
:10516800002004E0003000400F4B30B51A68996801
:105178001D680E4B1C680E4B12F48032186818BF5D
:10518800224621F07F41024408291A6007D915F404
:10519800803F1A6814BF2046002002441A6018682D
:1051A8002044401A30BD00BF10E000E0B0070020E6
:1051B800B407002008B50D4A0D4B12681868104452
:1051C8000C4A186011680C4B401AB0FBF3F003FB53
:1051D80000131360094B1A68094B1A6000221A6001
:1051E80002F066FABDE8084000F09EB8B00700205B
:1051F800AC070020A80700200077010010E000E0BD
:10520800B4070020084B102283F82320074B084AD4
:105218001A60084B00201860074B5A6098601A689B
:1052280042F007021A60704700ED00E0B007002066
:10523800FF760100B407002010E000E070B5204CB4
:1052480051B1431C08D11F4A136823F001031360AE
:105258004FF07F43236070BD0138AD282BDC002858
:105268002BDD194E46434FF01003EFF3118583F3FE
:105278001188BFF36F8FFFF777FF144B12491A6835
:1052880010441860124B1A68C2F5BB33FF3333441D
:105298000344101AB3FBF1F301FB03000D4B20602C
:1052A80000221A60074B013858609A6085F311880C
:1052B800BFF36F8FCFE7AD20D3E741F27076D2E727
:1052C800B007002010E000E000770100AC070020E4
:1052D800A8070020B407002010B54FF01003EFF323
:1052E800118483F31188BFF36F8FFFF73DFF074BDE
:1052F800074A1B6812689B1A184484F31188BFF385
:105308006F8F044BB0FBF3F010BD00BFAC0700205B
:10531800A807002000770100024A136823F0010360
:105328001360704710E000E004488168006A884212
:1053380003D003494FF080520A60704744090020A7
:1053480004ED00E0044800231021C2180133662B45
:1053580082F80013F9D1704700E100E0094A0A49D0
:10536800936809689966094958664B6843F0805301
:105378004B60002383F31188BFF36F8F9368986E97
:10538800704700BF440900202CAE000800ED00E083
:10539800102080F31188BFF36F8F11498A684FF08E
:1053A80028001044EFF3098C80E8F01F0D4F4FF0F0
:1053B80000660A6A8A603E60506E0023536680F376
:1053C800118804B50648806803F0FAFEBDE8044079
:1053D80002F1280090E8F01F8CF30988704700005C
:1053E8004409002004ED00E01EF0040F0CBFEFF3A9
:1053F8000880EFF30980816931F8021C11F0FF0180
:105408000229FFD001B503F0D0FE01BD38B51C4C10
:1054180005461C4802F06DFEA26AD10602D51A485C
:1054280002F067FEA36A1A0702D5184802F061FE67
:10543800134CA36A9B070ED5154802F05AFE616B00
:10544800A36A180607D5134802F053FE1DB1A36AD4
:1054580023F08003A3620A4CA26AD20702D50E4841
:1054680002F047FEA36A9B0602D50C4802F041FEF3
:10547800034B9A6A9A6A42F0FF029A62002038BD8A
:1054880000ED00E01CB6000833B6000867B6000857
:105498007BB6000894B60008ABB60008CBB6000887
:1054A80038B51E4C05461E4802F023FEA26AD104F8
:1054B80002D51C4802F01DFEA36A1A0502D51A4837
:1054C80002F017FE154CA36A9B050ED5174802F08B
:1054D80010FEA16BA36A180407D5154802F009FE4F
:1054E8001DB1A36A23F40043A3620C4CA36A5905B7
:1054F80002D5104802F0FDFDA36ADA0509D50E4869
:1055080002F0F7FD054A936A43F47F439362002053
:1055180038BDA36A9B04F5D50848F1E700ED00E023
:105528008EB50008A5B5000867B60008B7B500082D
:10553800D1B50008E7B5000803B60008CBB60008E7
:1055480010B5194C194802F0D4FDA26A930102D58E
:10555800174802F0CEFDA36ADC0102D5154802F017
:10556800C8FD114CA26A100302D5134802F0C1FD10
:10557800A36A590302D5114802F0BBFD0A4CA26A7E
:10558800920302D50E4802F0B4FDA36ADB0302D5EC
:105598000C4802F0AEFD044A936A6FEA03436FEACF
:1055A80013439362002010BD00ED00E0FBB6000835
:1055B80014B7000828B7000843B7000862B7000806
:1055C80088B70008A3B70008F8B5294D6E68C6F378
:1055D80008040746FEF716FBE31E092B3BD8DFE855
:1055E80003F0053436293A3A3A3A3A38214802F073
:1055F80080FDEC6A14F0020404D01F4802F079FD23
:1056080000241CE0EB6A5B0019D51C4802F071FD10
:105618001B4B1B781BB10120FFF7F8FE0CE0194B60
:105628001B781BB10120FFF73BFF05E0164B1B88D9
:105638009BB223B1FFF784FF0628044617D03946EA
:105648002046BDE8F84000F0A3B80020E4E70020B9
:10565800E9E70E48D2E70E4B0E490F4816F4F87FDB
:10566800A4F1100218BF194602F043FDC8E7F8BDBF
:1056780000ED00E0FDB7000815B8000837B80008CD
:1056880028ED00E029ED00E02AED00E057B8000819
:10569800E4B70008CFB700088EB80008024A53697B
:1056A80043F010035361704700ED00E043B2002B54
:1056B80008DB012200F01F0002FA00F05B09024A31
:1056C80042F82300704700BF00E100E043B2002B1E
:1056D800A8BF03F1604301F101014FEA0111AEBF18
:1056E80003F5614300F00F00034BC9B2ACBF83F868
:1056F80000131954704700BF14ED00E02DE9F04184
:105708008C18884617461E4604220A9B09990546A6
:1057180004F0A2FCA4F120030C4923F007030022A3
:1057280021F00101C5E91322C5E916879961069997
:105738005960079999600899D9604FF080711E6087
:10574800D961AB646A66BDE8F08100BF257E0008B8
:10575800014910220A60704710ED00E0404080F3D4
:10576800118830BF704700BF404080F31188DFF8D0
:105778001CC0DCF800C01CF4006C0CBFEFF3088000
:10578800EFF3098001B5FFF71FFF01BD04ED00E04D
:1057980038B504460D46FEF735FA052C1AD8DFE869
:1057A80004F00319191315170D4802F0A2FC01F0B3
:1057B800E3FDAA6901460B4802F09BFC29462046F6
:1057C800BDE8384000F018B80748EEE70748ECE7AE
:1057D8000748EAE72146074802F08BFCE7E700BFE5
:1057E800A2B8000840B90008C2B80008E8B8000824
:1057F80002B900081DB90008052810B50CD001F041
:1058080011FE60B101F00EFE0C490D4B002808BFD7
:1058180019460C4802F06DFCFFF7A0FFFCE701F009
:1058280011FE0028EED1084C0848A16802F061FC7E
:10583800A068BDE8104000F00BB800BF7CB90008B4
:1058480080B9000891B9000844090020B1B90008DE
:1058580038B505464FF01003EFF3118483F3118830
:10586800BFF36F8F04F0D9FB0A4B9B68AB420BD197
:10587800094B5A68C2F3080212B92046FFF76EFDB9
:105888005A6842F080525A602046BDE8384004F019
:1058980016BB00BF4409002000ED00E001B5EFF39E
:1058A8000580A0F110004FEAC0000449014409C96D
:1058B8009847BDE801400248004700007CA2000864
:1058C80031530008102080F3118808484FF4006114
:1058D800401880F30988EFF314800221084380F30D
:1058E8001488BFF36F8F00F007F8000040320020E3
:1058F80030BFFFF7FDBF00BF08B5084B084A23F0CB
:105908007F039360BFF34F8FBFF36F8F00F0F2FFF9
:1059180000F0FAFFFFF716FD01F024F80000000878
:1059280000ED00E0BFF34F8F0549064BCA6802F44B
:10593800E0621343CB60BFF34F8F00BFFDE700BFAA
:1059480000ED00E00400FA051FB5084B0193084B71
:105958000293084B039301AB0093074A074B0121BD
:10596800684600F091F805B05DF804FB00000020DF
:105978000000000000000B060000002000000520C9
:10598800F0B5204F00268E4201DB1046F0BD50F8DE
:1059980026C0DCF8044094B35BB104F1FF3E14EA7E
:1059A8000E0F1AD11F2C18D9DCF800501EEA050F6B
:1059B80013D1202CDCF80050DCF808C0D2B20FD983
:1059C800B4F1004F0ED8013CB4FA84F4C4F11F04BA
:1059D8006400072A4CEA040406D96FF01502D4E7DC
:1059E8000824F6E73E24F4E725F01F05154345F0A3
:1059F800100544F00104BA60FD6001323C610136D3
:105A0800C1E700BF90ED00E0034B05225A60BFF3E9
:105A18004F8FBFF36F8F704790ED00E0BFF35F8F3C
:105A2800014B00225A60704790ED00E01349086866
:105A3800082810B51ED8FFF7F1FF114C496800225D
:105A4800904201F10C0105D10E4B1870FFF7DCFFF5
:105A5800002010BDA26051F80C3C23F01F03134333
:105A680043F01003E36051F8043C43F00103236161
:105A78000132E5E74FF0FF30EBE700BF00AB00086D
:105A880090ED00E0FB09002010B5034C01232278BB
:105A9800FFF776FF207010BDFB09002008B5084A03
:105AA80000231278FFF76CFF10F1160F03D0054B97
:105AB8000022072800DD08BD98601A610130F8E768
:105AC800FB09002090ED00E02DE9F04FCDB0CDE9C5
